{
  "contractName": "ArtMarketplace",
  "abi": [
    {
      "inputs": [
        {
          "internalType": "string",
          "name": "_name",
          "type": "string"
        },
        {
          "internalType": "string",
          "name": "_symbol",
          "type": "string"
        }
      ],
      "stateMutability": "nonpayable",
      "type": "constructor"
    },
    {
      "inputs": [],
      "name": "ERC721EnumerableForbiddenBatchMint",
      "type": "error"
    },
    {
      "inputs": [
        {
          "internalType": "address",
          "name": "sender",
          "type": "address"
        },
        {
          "internalType": "uint256",
          "name": "tokenId",
          "type": "uint256"
        },
        {
          "internalType": "address",
          "name": "owner",
          "type": "address"
        }
      ],
      "name": "ERC721IncorrectOwner",
      "type": "error"
    },
    {
      "inputs": [
        {
          "internalType": "address",
          "name": "operator",
          "type": "address"
        },
        {
          "internalType": "uint256",
          "name": "tokenId",
          "type": "uint256"
        }
      ],
      "name": "ERC721InsufficientApproval",
      "type": "error"
    },
    {
      "inputs": [
        {
          "internalType": "address",
          "name": "approver",
          "type": "address"
        }
      ],
      "name": "ERC721InvalidApprover",
      "type": "error"
    },
    {
      "inputs": [
        {
          "internalType": "address",
          "name": "operator",
          "type": "address"
        }
      ],
      "name": "ERC721InvalidOperator",
      "type": "error"
    },
    {
      "inputs": [
        {
          "internalType": "address",
          "name": "owner",
          "type": "address"
        }
      ],
      "name": "ERC721InvalidOwner",
      "type": "error"
    },
    {
      "inputs": [
        {
          "internalType": "address",
          "name": "receiver",
          "type": "address"
        }
      ],
      "name": "ERC721InvalidReceiver",
      "type": "error"
    },
    {
      "inputs": [
        {
          "internalType": "address",
          "name": "sender",
          "type": "address"
        }
      ],
      "name": "ERC721InvalidSender",
      "type": "error"
    },
    {
      "inputs": [
        {
          "internalType": "uint256",
          "name": "tokenId",
          "type": "uint256"
        }
      ],
      "name": "ERC721NonexistentToken",
      "type": "error"
    },
    {
      "inputs": [
        {
          "internalType": "address",
          "name": "owner",
          "type": "address"
        },
        {
          "internalType": "uint256",
          "name": "index",
          "type": "uint256"
        }
      ],
      "name": "ERC721OutOfBoundsIndex",
      "type": "error"
    },
    {
      "anonymous": false,
      "inputs": [
        {
          "indexed": true,
          "internalType": "address",
          "name": "owner",
          "type": "address"
        },
        {
          "indexed": true,
          "internalType": "address",
          "name": "approved",
          "type": "address"
        },
        {
          "indexed": true,
          "internalType": "uint256",
          "name": "tokenId",
          "type": "uint256"
        }
      ],
      "name": "Approval",
      "type": "event"
    },
    {
      "anonymous": false,
      "inputs": [
        {
          "indexed": true,
          "internalType": "address",
          "name": "owner",
          "type": "address"
        },
        {
          "indexed": true,
          "internalType": "address",
          "name": "operator",
          "type": "address"
        },
        {
          "indexed": false,
          "internalType": "bool",
          "name": "approved",
          "type": "bool"
        }
      ],
      "name": "ApprovalForAll",
      "type": "event"
    },
    {
      "anonymous": false,
      "inputs": [
        {
          "indexed": false,
          "internalType": "uint256",
          "name": "artId",
          "type": "uint256"
        },
        {
          "indexed": false,
          "internalType": "address",
          "name": "artistAddress",
          "type": "address"
        },
        {
          "indexed": false,
          "internalType": "string",
          "name": "title",
          "type": "string"
        },
        {
          "indexed": false,
          "internalType": "uint256",
          "name": "price",
          "type": "uint256"
        }
      ],
      "name": "ArtListed",
      "type": "event"
    },
    {
      "anonymous": false,
      "inputs": [
        {
          "indexed": false,
          "internalType": "uint256",
          "name": "artId",
          "type": "uint256"
        },
        {
          "indexed": false,
          "internalType": "address",
          "name": "buyerAddress",
          "type": "address"
        },
        {
          "indexed": false,
          "internalType": "uint256",
          "name": "price",
          "type": "uint256"
        }
      ],
      "name": "ArtPurchased",
      "type": "event"
    },
    {
      "anonymous": false,
      "inputs": [
        {
          "indexed": false,
          "internalType": "uint256",
          "name": "artId",
          "type": "uint256"
        },
        {
          "indexed": false,
          "internalType": "uint256",
          "name": "newPrice",
          "type": "uint256"
        }
      ],
      "name": "ArtResold",
      "type": "event"
    },
    {
      "anonymous": false,
      "inputs": [
        {
          "indexed": true,
          "internalType": "address",
          "name": "previousAddress",
          "type": "address"
        },
        {
          "indexed": true,
          "internalType": "address",
          "name": "newAddress",
          "type": "address"
        }
      ],
      "name": "BackendAddressSet",
      "type": "event"
    },
    {
      "anonymous": false,
      "inputs": [
        {
          "indexed": true,
          "internalType": "address",
          "name": "from",
          "type": "address"
        },
        {
          "indexed": true,
          "internalType": "address",
          "name": "to",
          "type": "address"
        },
        {
          "indexed": true,
          "internalType": "uint256",
          "name": "tokenId",
          "type": "uint256"
        }
      ],
      "name": "Transfer",
      "type": "event"
    },
    {
      "inputs": [
        {
          "internalType": "address",
          "name": "to",
          "type": "address"
        },
        {
          "internalType": "uint256",
          "name": "tokenId",
          "type": "uint256"
        }
      ],
      "name": "approve",
      "outputs": [],
      "stateMutability": "nonpayable",
      "type": "function"
    },
    {
      "inputs": [],
      "name": "backendAddress",
      "outputs": [
        {
          "internalType": "address",
          "name": "",
          "type": "address"
        }
      ],
      "stateMutability": "view",
      "type": "function",
      "constant": true
    },
    {
      "inputs": [
        {
          "internalType": "address",
          "name": "owner",
          "type": "address"
        }
      ],
      "name": "balanceOf",
      "outputs": [
        {
          "internalType": "uint256",
          "name": "",
          "type": "uint256"
        }
      ],
      "stateMutability": "view",
      "type": "function",
      "constant": true
    },
    {
      "inputs": [
        {
          "internalType": "uint256",
          "name": "tokenId",
          "type": "uint256"
        }
      ],
      "name": "getApproved",
      "outputs": [
        {
          "internalType": "address",
          "name": "",
          "type": "address"
        }
      ],
      "stateMutability": "view",
      "type": "function",
      "constant": true
    },
    {
      "inputs": [
        {
          "internalType": "address",
          "name": "owner",
          "type": "address"
        },
        {
          "internalType": "address",
          "name": "operator",
          "type": "address"
        }
      ],
      "name": "isApprovedForAll",
      "outputs": [
        {
          "internalType": "bool",
          "name": "",
          "type": "bool"
        }
      ],
      "stateMutability": "view",
      "type": "function",
      "constant": true
    },
    {
      "inputs": [],
      "name": "name",
      "outputs": [
        {
          "internalType": "string",
          "name": "",
          "type": "string"
        }
      ],
      "stateMutability": "view",
      "type": "function",
      "constant": true
    },
    {
      "inputs": [
        {
          "internalType": "uint256",
          "name": "tokenId",
          "type": "uint256"
        }
      ],
      "name": "ownerOf",
      "outputs": [
        {
          "internalType": "address",
          "name": "",
          "type": "address"
        }
      ],
      "stateMutability": "view",
      "type": "function",
      "constant": true
    },
    {
      "inputs": [
        {
          "internalType": "address",
          "name": "from",
          "type": "address"
        },
        {
          "internalType": "address",
          "name": "to",
          "type": "address"
        },
        {
          "internalType": "uint256",
          "name": "tokenId",
          "type": "uint256"
        }
      ],
      "name": "safeTransferFrom",
      "outputs": [],
      "stateMutability": "nonpayable",
      "type": "function"
    },
    {
      "inputs": [
        {
          "internalType": "address",
          "name": "from",
          "type": "address"
        },
        {
          "internalType": "address",
          "name": "to",
          "type": "address"
        },
        {
          "internalType": "uint256",
          "name": "tokenId",
          "type": "uint256"
        },
        {
          "internalType": "bytes",
          "name": "data",
          "type": "bytes"
        }
      ],
      "name": "safeTransferFrom",
      "outputs": [],
      "stateMutability": "nonpayable",
      "type": "function"
    },
    {
      "inputs": [
        {
          "internalType": "address",
          "name": "operator",
          "type": "address"
        },
        {
          "internalType": "bool",
          "name": "approved",
          "type": "bool"
        }
      ],
      "name": "setApprovalForAll",
      "outputs": [],
      "stateMutability": "nonpayable",
      "type": "function"
    },
    {
      "inputs": [
        {
          "internalType": "bytes4",
          "name": "interfaceId",
          "type": "bytes4"
        }
      ],
      "name": "supportsInterface",
      "outputs": [
        {
          "internalType": "bool",
          "name": "",
          "type": "bool"
        }
      ],
      "stateMutability": "view",
      "type": "function",
      "constant": true
    },
    {
      "inputs": [],
      "name": "symbol",
      "outputs": [
        {
          "internalType": "string",
          "name": "",
          "type": "string"
        }
      ],
      "stateMutability": "view",
      "type": "function",
      "constant": true
    },
    {
      "inputs": [
        {
          "internalType": "uint256",
          "name": "index",
          "type": "uint256"
        }
      ],
      "name": "tokenByIndex",
      "outputs": [
        {
          "internalType": "uint256",
          "name": "",
          "type": "uint256"
        }
      ],
      "stateMutability": "view",
      "type": "function",
      "constant": true
    },
    {
      "inputs": [
        {
          "internalType": "address",
          "name": "owner",
          "type": "address"
        },
        {
          "internalType": "uint256",
          "name": "index",
          "type": "uint256"
        }
      ],
      "name": "tokenOfOwnerByIndex",
      "outputs": [
        {
          "internalType": "uint256",
          "name": "",
          "type": "uint256"
        }
      ],
      "stateMutability": "view",
      "type": "function",
      "constant": true
    },
    {
      "inputs": [
        {
          "internalType": "uint256",
          "name": "tokenId",
          "type": "uint256"
        }
      ],
      "name": "tokenURI",
      "outputs": [
        {
          "internalType": "string",
          "name": "",
          "type": "string"
        }
      ],
      "stateMutability": "view",
      "type": "function",
      "constant": true
    },
    {
      "inputs": [],
      "name": "totalSupply",
      "outputs": [
        {
          "internalType": "uint256",
          "name": "",
          "type": "uint256"
        }
      ],
      "stateMutability": "view",
      "type": "function",
      "constant": true
    },
    {
      "inputs": [
        {
          "internalType": "address",
          "name": "from",
          "type": "address"
        },
        {
          "internalType": "address",
          "name": "to",
          "type": "address"
        },
        {
          "internalType": "uint256",
          "name": "tokenId",
          "type": "uint256"
        }
      ],
      "name": "transferFrom",
      "outputs": [],
      "stateMutability": "nonpayable",
      "type": "function"
    },
    {
      "inputs": [
        {
          "internalType": "address",
          "name": "_backendAddress",
          "type": "address"
        }
      ],
      "name": "setBackendAddress",
      "outputs": [],
      "stateMutability": "nonpayable",
      "type": "function"
    },
    {
      "inputs": [
        {
          "internalType": "string",
          "name": "_title",
          "type": "string"
        },
        {
          "internalType": "uint256",
          "name": "_price",
          "type": "uint256"
        }
      ],
      "name": "listArt",
      "outputs": [],
      "stateMutability": "nonpayable",
      "type": "function"
    },
    {
      "inputs": [
        {
          "internalType": "uint256",
          "name": "_artId",
          "type": "uint256"
        }
      ],
      "name": "buyArt",
      "outputs": [],
      "stateMutability": "payable",
      "type": "function",
      "payable": true
    },
    {
      "inputs": [
        {
          "internalType": "uint256",
          "name": "_artId",
          "type": "uint256"
        },
        {
          "internalType": "uint256",
          "name": "_newPrice",
          "type": "uint256"
        }
      ],
      "name": "resellArt",
      "outputs": [],
      "stateMutability": "nonpayable",
      "type": "function"
    }
  ],
  "bytecode": "0x608060405234801562000010575f80fd5b5060405162003536380380620035368339818101604052810190620000369190620001ea565b8181815f9081620000489190620004a4565b5080600190816200005a9190620004a4565b505050505062000588565b5f604051905090565b5f80fd5b5f80fd5b5f80fd5b5f80fd5b5f601f19601f8301169050919050565b7f4e487b71000000000000000000000000000000000000000000000000000000005f52604160045260245ffd5b620000c6826200007e565b810181811067ffffffffffffffff82111715620000e857620000e76200008e565b5b80604052505050565b5f620000fc62000065565b90506200010a8282620000bb565b919050565b5f67ffffffffffffffff8211156200012c576200012b6200008e565b5b62000137826200007e565b9050602081019050919050565b5f5b838110156200016357808201518184015260208101905062000146565b5f8484015250505050565b5f620001846200017e846200010f565b620000f1565b905082815260208101848484011115620001a357620001a26200007a565b5b620001b084828562000144565b509392505050565b5f82601f830112620001cf57620001ce62000076565b5b8151620001e18482602086016200016e565b91505092915050565b5f80604083850312156200020357620002026200006e565b5b5f83015167ffffffffffffffff81111562000223576200022262000072565b5b6200023185828601620001b8565b925050602083015167ffffffffffffffff81111562000255576200025462000072565b5b6200026385828601620001b8565b9150509250929050565b5f81519050919050565b7f4e487b71000000000000000000000000000000000000000000000000000000005f52602260045260245ffd5b5f6002820490506001821680620002bc57607f821691505b602082108103620002d257620002d162000277565b5b50919050565b5f819050815f5260205f209050919050565b5f6020601f8301049050919050565b5f82821b905092915050565b5f60088302620003367fffffffffffffffffffffffffffffffffffffffffffffffffffffffffffffffff82620002f9565b620003428683620002f9565b95508019841693508086168417925050509392505050565b5f819050919050565b5f819050919050565b5f6200038c6200038662000380846200035a565b62000363565b6200035a565b9050919050565b5f819050919050565b620003a7836200036c565b620003bf620003b68262000393565b84845462000305565b825550505050565b5f90565b620003d5620003c7565b620003e28184846200039c565b505050565b5b818110156200040957620003fd5f82620003cb565b600181019050620003e8565b5050565b601f82111562000458576200042281620002d8565b6200042d84620002ea565b810160208510156200043d578190505b620004556200044c85620002ea565b830182620003e7565b50505b505050565b5f82821c905092915050565b5f6200047a5f19846008026200045d565b1980831691505092915050565b5f62000494838362000469565b9150826002028217905092915050565b620004af826200026d565b67ffffffffffffffff811115620004cb57620004ca6200008e565b5b620004d78254620002a4565b620004e48282856200040d565b5f60209050601f8311600181146200051a575f841562000505578287015190505b62000511858262000487565b86555062000580565b601f1984166200052a86620002d8565b5f5b8281101562000553578489015182556001820191506020850194506020810190506200052c565b868310156200057357848901516200056f601f89168262000469565b8355505b6001600288020188555050505b505050505050565b612fa080620005965f395ff3fe608060405260043610610129575f3560e01c80634f6ccce7116100aa57806395d89b411161006e57806395d89b4114610403578063a22cb4651461042d578063b88d4fde14610455578063c87b56dd1461047d578063e985e9c5146104b9578063fc7a900b146104f557610129565b80634f6ccce7146102ff5780636352211e1461033b57806364262dcc1461037757806370a082311461039f57806389c6545a146103db57610129565b80631815ce7d116100f15780631815ce7d1461022157806318160ddd1461024957806323b872dd146102735780632f745c591461029b57806342842e0e146102d757610129565b806301ffc9a71461012d57806306fdde0314610169578063081812fc14610193578063095ea7b3146101cf5780630d72d57f146101f7575b5f80fd5b348015610138575f80fd5b50610153600480360381019061014e91906123d8565b610511565b604051610160919061241d565b60405180910390f35b348015610174575f80fd5b5061017d61058a565b60405161018a91906124c0565b60405180910390f35b34801561019e575f80fd5b506101b960048036038101906101b49190612513565b610619565b6040516101c6919061257d565b60405180910390f35b3480156101da575f80fd5b506101f560048036038101906101f091906125c0565b610634565b005b348015610202575f80fd5b5061020b61064a565b604051610218919061257d565b60405180910390f35b34801561022c575f80fd5b50610247600480360381019061024291906125fe565b61066f565b005b348015610254575f80fd5b5061025d61079b565b60405161026a9190612638565b60405180910390f35b34801561027e575f80fd5b5061029960048036038101906102949190612651565b6107a7565b005b3480156102a6575f80fd5b506102c160048036038101906102bc91906125c0565b6108a6565b6040516102ce9190612638565b60405180910390f35b3480156102e2575f80fd5b506102fd60048036038101906102f89190612651565b61094a565b005b34801561030a575f80fd5b5061032560048036038101906103209190612513565b610969565b6040516103329190612638565b60405180910390f35b348015610346575f80fd5b50610361600480360381019061035c9190612513565b6109db565b60405161036e919061257d565b60405180910390f35b348015610382575f80fd5b5061039d600480360381019061039891906126a1565b6109ec565b005b3480156103aa575f80fd5b506103c560048036038101906103c091906125fe565b610aa9565b6040516103d29190612638565b60405180910390f35b3480156103e6575f80fd5b5061040160048036038101906103fc9190612740565b610b5f565b005b34801561040e575f80fd5b50610417610bc5565b60405161042491906124c0565b60405180910390f35b348015610438575f80fd5b50610453600480360381019061044e91906127c7565b610c55565b005b348015610460575f80fd5b5061047b6004803603810190610476919061292d565b610c6b565b005b348015610488575f80fd5b506104a3600480360381019061049e9190612513565b610c88565b6040516104b091906124c0565b60405180910390f35b3480156104c4575f80fd5b506104df60048036038101906104da91906129ad565b610cee565b6040516104ec919061241d565b60405180910390f35b61050f600480360381019061050a9190612513565b610d7c565b005b5f7f780e9d63000000000000000000000000000000000000000000000000000000007bffffffffffffffffffffffffffffffffffffffffffffffffffffffff1916827bffffffffffffffffffffffffffffffffffffffffffffffffffffffff19161480610583575061058282610e9c565b5b9050919050565b60605f805461059890612a18565b80601f01602080910402602001604051908101604052809291908181526020018280546105c490612a18565b801561060f5780601f106105e65761010080835404028352916020019161060f565b820191905f5260205f20905b8154815290600101906020018083116105f257829003601f168201915b5050505050905090565b5f61062382610f7d565b5061062d82611003565b9050919050565b610646828261064161103c565b611043565b5050565b600a5f9054906101000a900473ffffffffffffffffffffffffffffffffffffffff1681565b5f73ffffffffffffffffffffffffffffffffffffffff16600a5f9054906101000a900473ffffffffffffffffffffffffffffffffffffffff1673ffffffffffffffffffffffffffffffffffffffff16146106fe576040517f08c379a00000000000000000000000000000000000000000000000000000000081526004016106f590612a92565b60405180910390fd5b8073ffffffffffffffffffffffffffffffffffffffff165f73ffffffffffffffffffffffffffffffffffffffff167fe57bd09dbcdbe357e858db0209e5e58f4f19123195b2dd325a443acd1433689d60405160405180910390a380600a5f6101000a81548173ffffffffffffffffffffffffffffffffffffffff021916908373ffffffffffffffffffffffffffffffffffffffff16021790555050565b5f600880549050905090565b5f73ffffffffffffffffffffffffffffffffffffffff168273ffffffffffffffffffffffffffffffffffffffff1603610817575f6040517f64a0ae9200000000000000000000000000000000000000000000000000000000815260040161080e919061257d565b60405180910390fd5b5f61082a838361082561103c565b611055565b90508373ffffffffffffffffffffffffffffffffffffffff168173ffffffffffffffffffffffffffffffffffffffff16146108a0578382826040517f64283d7b00000000000000000000000000000000000000000000000000000000815260040161089793929190612ab0565b60405180910390fd5b50505050565b5f6108b083610aa9565b82106108f55782826040517fa57d13dc0000000000000000000000000000000000000000000000000000000081526004016108ec929190612ae5565b60405180910390fd5b60065f8473ffffffffffffffffffffffffffffffffffffffff1673ffffffffffffffffffffffffffffffffffffffff1681526020019081526020015f205f8381526020019081526020015f2054905092915050565b61096483838360405180602001604052805f815250610c6b565b505050565b5f61097261079b565b82106109b7575f826040517fa57d13dc0000000000000000000000000000000000000000000000000000000081526004016109ae929190612ae5565b60405180910390fd5b600882815481106109cb576109ca612b0c565b5b905f5260205f2001549050919050565b5f6109e582610f7d565b9050919050565b3373ffffffffffffffffffffffffffffffffffffffff16610a0c836109db565b73ffffffffffffffffffffffffffffffffffffffff1614610a62576040517f08c379a0000000000000000000000000000000000000000000000000000000008152600401610a5990612b83565b60405180910390fd5b7fc529c3d67faf1bb75a71be010effaf862cddba46a68fef8282c60aad499029048282604051610a93929190612ba1565b60405180910390a1610aa5828261116f565b5050565b5f8073ffffffffffffffffffffffffffffffffffffffff168273ffffffffffffffffffffffffffffffffffffffff1603610b1a575f6040517f89c62b64000000000000000000000000000000000000000000000000000000008152600401610b11919061257d565b60405180910390fd5b60035f8373ffffffffffffffffffffffffffffffffffffffff1673ffffffffffffffffffffffffffffffffffffffff1681526020019081526020015f20549050919050565b5f6001610b6a61079b565b610b749190612bf5565b9050610b80338261123b565b7fd3188403d784eae1433372706d9b1cedaad58c68620e9fe7f76731fadba6feca8133868686604051610bb7959493929190612c54565b60405180910390a150505050565b606060018054610bd490612a18565b80601f0160208091040260200160405190810160405280929190818152602001828054610c0090612a18565b8015610c4b5780601f10610c2257610100808354040283529160200191610c4b565b820191905f5260205f20905b815481529060010190602001808311610c2e57829003601f168201915b5050505050905090565b610c67610c6061103c565b838361132e565b5050565b610c768484846107a7565b610c8284848484611497565b50505050565b6060610c9382610f7d565b505f610c9d611649565b90505f815111610cbb5760405180602001604052805f815250610ce6565b80610cc58461165f565b604051602001610cd6929190612cda565b6040516020818303038152906040525b915050919050565b5f60055f8473ffffffffffffffffffffffffffffffffffffffff1673ffffffffffffffffffffffffffffffffffffffff1681526020019081526020015f205f8373ffffffffffffffffffffffffffffffffffffffff1673ffffffffffffffffffffffffffffffffffffffff1681526020019081526020015f205f9054906101000a900460ff16905092915050565b5f73ffffffffffffffffffffffffffffffffffffffff16610d9c826109db565b73ffffffffffffffffffffffffffffffffffffffff1603610df2576040517f08c379a0000000000000000000000000000000000000000000000000000000008152600401610de990612d47565b60405180910390fd5b5f610dfc826109db565b90505f3490508173ffffffffffffffffffffffffffffffffffffffff166108fc8290811502906040515f60405180830381858888f19350505050158015610e45573d5f803e3d5ffd5b50610e51823385611729565b7f09cc7029faf4d636210031bcf7bfee46a9ef4ba189b8a930566d795177df6ac5833383604051610e8493929190612d65565b60405180910390a1610e97833383611891565b505050565b5f7f80ac58cd000000000000000000000000000000000000000000000000000000007bffffffffffffffffffffffffffffffffffffffffffffffffffffffff1916827bffffffffffffffffffffffffffffffffffffffffffffffffffffffff19161480610f6657507f5b5e139f000000000000000000000000000000000000000000000000000000007bffffffffffffffffffffffffffffffffffffffffffffffffffffffff1916827bffffffffffffffffffffffffffffffffffffffffffffffffffffffff1916145b80610f765750610f7582611960565b5b9050919050565b5f80610f88836119c9565b90505f73ffffffffffffffffffffffffffffffffffffffff168173ffffffffffffffffffffffffffffffffffffffff1603610ffa57826040517f7e273289000000000000000000000000000000000000000000000000000000008152600401610ff19190612638565b60405180910390fd5b80915050919050565b5f60045f8381526020019081526020015f205f9054906101000a900473ffffffffffffffffffffffffffffffffffffffff169050919050565b5f33905090565b6110508383836001611a02565b505050565b5f80611062858585611bc1565b90505f73ffffffffffffffffffffffffffffffffffffffff168173ffffffffffffffffffffffffffffffffffffffff16036110a5576110a084611dcc565b6110e4565b8473ffffffffffffffffffffffffffffffffffffffff168173ffffffffffffffffffffffffffffffffffffffff16146110e3576110e28185611e10565b5b5b5f73ffffffffffffffffffffffffffffffffffffffff168573ffffffffffffffffffffffffffffffffffffffff16036111255761112084611f5a565b611164565b8473ffffffffffffffffffffffffffffffffffffffff168173ffffffffffffffffffffffffffffffffffffffff161461116357611162858561201a565b5b5b809150509392505050565b600a5f9054906101000a900473ffffffffffffffffffffffffffffffffffffffff1673ffffffffffffffffffffffffffffffffffffffff163373ffffffffffffffffffffffffffffffffffffffff16146111fe576040517f08c379a00000000000000000000000000000000000000000000000000000000081526004016111f590612de4565b60405180910390fd5b7fc529c3d67faf1bb75a71be010effaf862cddba46a68fef8282c60aad49902904828260405161122f929190612ba1565b60405180910390a15050565b5f73ffffffffffffffffffffffffffffffffffffffff168273ffffffffffffffffffffffffffffffffffffffff16036112ab575f6040517f64a0ae920000000000000000000000000000000000000000000000000000000081526004016112a2919061257d565b60405180910390fd5b5f6112b783835f611055565b90505f73ffffffffffffffffffffffffffffffffffffffff168173ffffffffffffffffffffffffffffffffffffffff1614611329575f6040517f73c6ac6e000000000000000000000000000000000000000000000000000000008152600401611320919061257d565b60405180910390fd5b505050565b5f73ffffffffffffffffffffffffffffffffffffffff168273ffffffffffffffffffffffffffffffffffffffff160361139e57816040517f5b08ba18000000000000000000000000000000000000000000000000000000008152600401611395919061257d565b60405180910390fd5b8060055f8573ffffffffffffffffffffffffffffffffffffffff1673ffffffffffffffffffffffffffffffffffffffff1681526020019081526020015f205f8473ffffffffffffffffffffffffffffffffffffffff1673ffffffffffffffffffffffffffffffffffffffff1681526020019081526020015f205f6101000a81548160ff0219169083151502179055508173ffffffffffffffffffffffffffffffffffffffff168373ffffffffffffffffffffffffffffffffffffffff167f17307eab39ab6107e8899845ad3d59bd9653f200f220920489ca2b5937696c318360405161148a919061241d565b60405180910390a3505050565b5f8373ffffffffffffffffffffffffffffffffffffffff163b1115611643578273ffffffffffffffffffffffffffffffffffffffff1663150b7a026114da61103c565b8685856040518563ffffffff1660e01b81526004016114fc9493929190612e54565b6020604051808303815f875af192505050801561153757506040513d601f19601f820116820180604052508101906115349190612eb2565b60015b6115b8573d805f8114611565576040519150601f19603f3d011682016040523d82523d5f602084013e61156a565b606091505b505f8151036115b057836040517f64a0ae920000000000000000000000000000000000000000000000000000000081526004016115a7919061257d565b60405180910390fd5b805181602001fd5b63150b7a0260e01b7bffffffffffffffffffffffffffffffffffffffffffffffffffffffff1916817bffffffffffffffffffffffffffffffffffffffffffffffffffffffff19161461164157836040517f64a0ae92000000000000000000000000000000000000000000000000000000008152600401611638919061257d565b60405180910390fd5b505b50505050565b606060405180602001604052805f815250905090565b60605f600161166d8461209e565b0190505f8167ffffffffffffffff81111561168b5761168a612809565b5b6040519080825280601f01601f1916602001820160405280156116bd5781602001600182028036833780820191505090505b5090505f82602001820190505b60011561171e578080600190039150507f3031323334353637383961626364656600000000000000000000000000000000600a86061a8153600a858161171357611712612edd565b5b0494505f85036116ca575b819350505050919050565b5f73ffffffffffffffffffffffffffffffffffffffff168273ffffffffffffffffffffffffffffffffffffffff1603611799575f6040517f64a0ae92000000000000000000000000000000000000000000000000000000008152600401611790919061257d565b60405180910390fd5b5f6117a583835f611055565b90505f73ffffffffffffffffffffffffffffffffffffffff168173ffffffffffffffffffffffffffffffffffffffff160361181757816040517f7e27328900000000000000000000000000000000000000000000000000000000815260040161180e9190612638565b60405180910390fd5b8373ffffffffffffffffffffffffffffffffffffffff168173ffffffffffffffffffffffffffffffffffffffff161461188b578382826040517f64283d7b00000000000000000000000000000000000000000000000000000000815260040161188293929190612ab0565b60405180910390fd5b50505050565b600a5f9054906101000a900473ffffffffffffffffffffffffffffffffffffffff1673ffffffffffffffffffffffffffffffffffffffff163373ffffffffffffffffffffffffffffffffffffffff1614611920576040517f08c379a000000000000000000000000000000000000000000000000000000000815260040161191790612de4565b60405180910390fd5b7f09cc7029faf4d636210031bcf7bfee46a9ef4ba189b8a930566d795177df6ac583838360405161195393929190612d65565b60405180910390a1505050565b5f7f01ffc9a7000000000000000000000000000000000000000000000000000000007bffffffffffffffffffffffffffffffffffffffffffffffffffffffff1916827bffffffffffffffffffffffffffffffffffffffffffffffffffffffff1916149050919050565b5f60025f8381526020019081526020015f205f9054906101000a900473ffffffffffffffffffffffffffffffffffffffff169050919050565b8080611a3a57505f73ffffffffffffffffffffffffffffffffffffffff168273ffffffffffffffffffffffffffffffffffffffff1614155b15611b6c575f611a4984610f7d565b90505f73ffffffffffffffffffffffffffffffffffffffff168373ffffffffffffffffffffffffffffffffffffffff1614158015611ab357508273ffffffffffffffffffffffffffffffffffffffff168173ffffffffffffffffffffffffffffffffffffffff1614155b8015611ac65750611ac48184610cee565b155b15611b0857826040517fa9fbf51f000000000000000000000000000000000000000000000000000000008152600401611aff919061257d565b60405180910390fd5b8115611b6a57838573ffffffffffffffffffffffffffffffffffffffff168273ffffffffffffffffffffffffffffffffffffffff167f8c5be1e5ebec7d5bd14f71427d1e84f3dd0314c0f7b2291e5b200ac8c7c3b92560405160405180910390a45b505b8360045f8581526020019081526020015f205f6101000a81548173ffffffffffffffffffffffffffffffffffffffff021916908373ffffffffffffffffffffffffffffffffffffffff16021790555050505050565b5f80611bcc846119c9565b90505f73ffffffffffffffffffffffffffffffffffffffff168373ffffffffffffffffffffffffffffffffffffffff1614611c0d57611c0c8184866121ef565b5b5f73ffffffffffffffffffffffffffffffffffffffff168173ffffffffffffffffffffffffffffffffffffffff1614611c9857611c4c5f855f80611a02565b600160035f8373ffffffffffffffffffffffffffffffffffffffff1673ffffffffffffffffffffffffffffffffffffffff1681526020019081526020015f205f82825403925050819055505b5f73ffffffffffffffffffffffffffffffffffffffff168573ffffffffffffffffffffffffffffffffffffffff1614611d1757600160035f8773ffffffffffffffffffffffffffffffffffffffff1673ffffffffffffffffffffffffffffffffffffffff1681526020019081526020015f205f82825401925050819055505b8460025f8681526020019081526020015f205f6101000a81548173ffffffffffffffffffffffffffffffffffffffff021916908373ffffffffffffffffffffffffffffffffffffffff160217905550838573ffffffffffffffffffffffffffffffffffffffff168273ffffffffffffffffffffffffffffffffffffffff167fddf252ad1be2c89b69c2b068fc378daa952ba7f163c4a11628f55a4df523b3ef60405160405180910390a4809150509392505050565b60088054905060095f8381526020019081526020015f2081905550600881908060018154018082558091505060019003905f5260205f20015f909190919091505550565b5f611e1a83610aa9565b90505f60075f8481526020019081526020015f20549050818114611ef1575f60065f8673ffffffffffffffffffffffffffffffffffffffff1673ffffffffffffffffffffffffffffffffffffffff1681526020019081526020015f205f8481526020019081526020015f205490508060065f8773ffffffffffffffffffffffffffffffffffffffff1673ffffffffffffffffffffffffffffffffffffffff1681526020019081526020015f205f8481526020019081526020015f20819055508160075f8381526020019081526020015f2081905550505b60075f8481526020019081526020015f205f905560065f8573ffffffffffffffffffffffffffffffffffffffff1673ffffffffffffffffffffffffffffffffffffffff1681526020019081526020015f205f8381526020019081526020015f205f905550505050565b5f6001600880549050611f6d9190612f0a565b90505f60095f8481526020019081526020015f205490505f60088381548110611f9957611f98612b0c565b5b905f5260205f20015490508060088381548110611fb957611fb8612b0c565b5b905f5260205f2001819055508160095f8381526020019081526020015f208190555060095f8581526020019081526020015f205f9055600880548061200157612000612f3d565b5b600190038181905f5260205f20015f9055905550505050565b5f600161202684610aa9565b6120309190612f0a565b90508160065f8573ffffffffffffffffffffffffffffffffffffffff1673ffffffffffffffffffffffffffffffffffffffff1681526020019081526020015f205f8381526020019081526020015f20819055508060075f8481526020019081526020015f2081905550505050565b5f805f90507a184f03e93ff9f4daa797ed6e38ed64bf6a1f01000000000000000083106120fa577a184f03e93ff9f4daa797ed6e38ed64bf6a1f01000000000000000083816120f0576120ef612edd565b5b0492506040810190505b6d04ee2d6d415b85acef81000000008310612137576d04ee2d6d415b85acef8100000000838161212d5761212c612edd565b5b0492506020810190505b662386f26fc10000831061216657662386f26fc10000838161215c5761215b612edd565b5b0492506010810190505b6305f5e100831061218f576305f5e100838161218557612184612edd565b5b0492506008810190505b61271083106121b45761271083816121aa576121a9612edd565b5b0492506004810190505b606483106121d757606483816121cd576121cc612edd565b5b0492506002810190505b600a83106121e6576001810190505b80915050919050565b6121fa8383836122b2565b6122ad575f73ffffffffffffffffffffffffffffffffffffffff168373ffffffffffffffffffffffffffffffffffffffff160361226e57806040517f7e2732890000000000000000000000000000000000000000000000000000000081526004016122659190612638565b60405180910390fd5b81816040517f177e802f0000000000000000000000000000000000000000000000000000000081526004016122a4929190612ae5565b60405180910390fd5b505050565b5f8073ffffffffffffffffffffffffffffffffffffffff168373ffffffffffffffffffffffffffffffffffffffff161415801561236957508273ffffffffffffffffffffffffffffffffffffffff168473ffffffffffffffffffffffffffffffffffffffff16148061232a57506123298484610cee565b5b8061236857508273ffffffffffffffffffffffffffffffffffffffff1661235083611003565b73ffffffffffffffffffffffffffffffffffffffff16145b5b90509392505050565b5f604051905090565b5f80fd5b5f80fd5b5f7fffffffff0000000000000000000000000000000000000000000000000000000082169050919050565b6123b781612383565b81146123c1575f80fd5b50565b5f813590506123d2816123ae565b92915050565b5f602082840312156123ed576123ec61237b565b5b5f6123fa848285016123c4565b91505092915050565b5f8115159050919050565b61241781612403565b82525050565b5f6020820190506124305f83018461240e565b92915050565b5f81519050919050565b5f82825260208201905092915050565b5f5b8381101561246d578082015181840152602081019050612452565b5f8484015250505050565b5f601f19601f8301169050919050565b5f61249282612436565b61249c8185612440565b93506124ac818560208601612450565b6124b581612478565b840191505092915050565b5f6020820190508181035f8301526124d88184612488565b905092915050565b5f819050919050565b6124f2816124e0565b81146124fc575f80fd5b50565b5f8135905061250d816124e9565b92915050565b5f602082840312156125285761252761237b565b5b5f612535848285016124ff565b91505092915050565b5f73ffffffffffffffffffffffffffffffffffffffff82169050919050565b5f6125678261253e565b9050919050565b6125778161255d565b82525050565b5f6020820190506125905f83018461256e565b92915050565b61259f8161255d565b81146125a9575f80fd5b50565b5f813590506125ba81612596565b92915050565b5f80604083850312156125d6576125d561237b565b5b5f6125e3858286016125ac565b92505060206125f4858286016124ff565b9150509250929050565b5f602082840312156126135761261261237b565b5b5f612620848285016125ac565b91505092915050565b612632816124e0565b82525050565b5f60208201905061264b5f830184612629565b92915050565b5f805f606084860312156126685761266761237b565b5b5f612675868287016125ac565b9350506020612686868287016125ac565b9250506040612697868287016124ff565b9150509250925092565b5f80604083850312156126b7576126b661237b565b5b5f6126c4858286016124ff565b92505060206126d5858286016124ff565b9150509250929050565b5f80fd5b5f80fd5b5f80fd5b5f8083601f840112612700576126ff6126df565b5b8235905067ffffffffffffffff81111561271d5761271c6126e3565b5b602083019150836001820283011115612739576127386126e7565b5b9250929050565b5f805f604084860312156127575761275661237b565b5b5f84013567ffffffffffffffff8111156127745761277361237f565b5b612780868287016126eb565b93509350506020612793868287016124ff565b9150509250925092565b6127a681612403565b81146127b0575f80fd5b50565b5f813590506127c18161279d565b92915050565b5f80604083850312156127dd576127dc61237b565b5b5f6127ea858286016125ac565b92505060206127fb858286016127b3565b9150509250929050565b5f80fd5b7f4e487b71000000000000000000000000000000000000000000000000000000005f52604160045260245ffd5b61283f82612478565b810181811067ffffffffffffffff8211171561285e5761285d612809565b5b80604052505050565b5f612870612372565b905061287c8282612836565b919050565b5f67ffffffffffffffff82111561289b5761289a612809565b5b6128a482612478565b9050602081019050919050565b828183375f83830152505050565b5f6128d16128cc84612881565b612867565b9050828152602081018484840111156128ed576128ec612805565b5b6128f88482856128b1565b509392505050565b5f82601f830112612914576129136126df565b5b81356129248482602086016128bf565b91505092915050565b5f805f80608085870312156129455761294461237b565b5b5f612952878288016125ac565b9450506020612963878288016125ac565b9350506040612974878288016124ff565b925050606085013567ffffffffffffffff8111156129955761299461237f565b5b6129a187828801612900565b91505092959194509250565b5f80604083850312156129c3576129c261237b565b5b5f6129d0858286016125ac565b92505060206129e1858286016125ac565b9150509250929050565b7f4e487b71000000000000000000000000000000000000000000000000000000005f52602260045260245ffd5b5f6002820490506001821680612a2f57607f821691505b602082108103612a4257612a416129eb565b5b50919050565b7f4261636b656e64206164647265737320616c72656164792073657400000000005f82015250565b5f612a7c601b83612440565b9150612a8782612a48565b602082019050919050565b5f6020820190508181035f830152612aa981612a70565b9050919050565b5f606082019050612ac35f83018661256e565b612ad06020830185612629565b612add604083018461256e565b949350505050565b5f604082019050612af85f83018561256e565b612b056020830184612629565b9392505050565b7f4e487b71000000000000000000000000000000000000000000000000000000005f52603260045260245ffd5b7f4e6f7420746865206f776e6572206f66207468652061727400000000000000005f82015250565b5f612b6d601883612440565b9150612b7882612b39565b602082019050919050565b5f6020820190508181035f830152612b9a81612b61565b9050919050565b5f604082019050612bb45f830185612629565b612bc16020830184612629565b9392505050565b7f4e487b71000000000000000000000000000000000000000000000000000000005f52601160045260245ffd5b5f612bff826124e0565b9150612c0a836124e0565b9250828201905080821115612c2257612c21612bc8565b5b92915050565b5f612c338385612440565b9350612c408385846128b1565b612c4983612478565b840190509392505050565b5f608082019050612c675f830188612629565b612c74602083018761256e565b8181036040830152612c87818587612c28565b9050612c966060830184612629565b9695505050505050565b5f81905092915050565b5f612cb482612436565b612cbe8185612ca0565b9350612cce818560208601612450565b80840191505092915050565b5f612ce58285612caa565b9150612cf18284612caa565b91508190509392505050565b7f417274206e6f74206c69737465640000000000000000000000000000000000005f82015250565b5f612d31600e83612440565b9150612d3c82612cfd565b602082019050919050565b5f6020820190508181035f830152612d5e81612d25565b9050919050565b5f606082019050612d785f830186612629565b612d85602083018561256e565b612d926040830184612629565b949350505050565b7f556e617574686f72697a656400000000000000000000000000000000000000005f82015250565b5f612dce600c83612440565b9150612dd982612d9a565b602082019050919050565b5f6020820190508181035f830152612dfb81612dc2565b9050919050565b5f81519050919050565b5f82825260208201905092915050565b5f612e2682612e02565b612e308185612e0c565b9350612e40818560208601612450565b612e4981612478565b840191505092915050565b5f608082019050612e675f83018761256e565b612e74602083018661256e565b612e816040830185612629565b8181036060830152612e938184612e1c565b905095945050505050565b5f81519050612eac816123ae565b92915050565b5f60208284031215612ec757612ec661237b565b5b5f612ed484828501612e9e565b91505092915050565b7f4e487b71000000000000000000000000000000000000000000000000000000005f52601260045260245ffd5b5f612f14826124e0565b9150612f1f836124e0565b9250828203905081811115612f3757612f36612bc8565b5b92915050565b7f4e487b71000000000000000000000000000000000000000000000000000000005f52603160045260245ffdfea264697066735822122029185998ac567b78f48169af2710ffe645a26a9c75adb8c0283d7445bfa7bc2864736f6c63430008150033",
  "immutableReferences": {},
  "source": "// SPDX-License-Identifier: MIT\r\npragma solidity >=0.4.22 <0.9.0;\r\n\r\nimport \"@openzeppelin/contracts/token/ERC721/extensions/ERC721Enumerable.sol\";\r\n\r\ncontract ArtMarketplace is ERC721Enumerable {\r\n    address public backendAddress;\r\n\r\n    event BackendAddressSet(address indexed previousAddress, address indexed newAddress);\r\n    event ArtListed(uint256 artId, address artistAddress, string title, uint256 price);\r\n    event ArtPurchased(uint256 artId, address buyerAddress, uint256 price);\r\n    event ArtResold(uint256 artId, uint256 newPrice);\r\n\r\n    modifier onlyBackend() {\r\n        require(msg.sender == backendAddress, \"Unauthorized\");\r\n        _;\r\n    }\r\n\r\n    constructor(string memory _name, string memory _symbol) ERC721(_name, _symbol) {}\r\n\r\n    function setBackendAddress(address _backendAddress) external {\r\n        require(backendAddress == address(0), \"Backend address already set\");\r\n        emit BackendAddressSet(address(0), _backendAddress);\r\n        backendAddress = _backendAddress;\r\n    }\r\n\r\n    function listArt(string calldata _title, uint256 _price) external {\r\n        uint256 artId = totalSupply() + 1;\r\n        _mint(msg.sender, artId);\r\n        emit ArtListed(artId, msg.sender, _title, _price);\r\n    }\r\n\r\n    function buyArt(uint256 _artId) external payable {\r\n        require(ownerOf(_artId) != address(0), \"Art not listed\");\r\n        address artistAddress = ownerOf(_artId);\r\n        uint256 price = msg.value;\r\n        payable(artistAddress).transfer(price);\r\n        _transfer(artistAddress, msg.sender, _artId);\r\n        emit ArtPurchased(_artId, msg.sender, price);\r\n        updateBackendOnPurchase(_artId, msg.sender, price);\r\n    }\r\n\r\n    function resellArt(uint256 _artId, uint256 _newPrice) external {\r\n        require(ownerOf(_artId) == msg.sender, \"Not the owner of the art\");\r\n        emit ArtResold(_artId, _newPrice);\r\n        updateBackendOnResell(_artId, _newPrice);\r\n    }\r\n\r\n    function updateBackendOnPurchase(uint256 _artId, address _buyer, uint256 _price) internal onlyBackend {\r\n        emit ArtPurchased(_artId, _buyer, _price);\r\n    }\r\n\r\n    function updateBackendOnResell(uint256 _artId, uint256 _newPrice) internal onlyBackend {\r\n        emit ArtResold(_artId, _newPrice);\r\n    }\r\n}\r\n",
  "sourcePath": "D:\\Mega\\Mega\\ArtGuardian\\contracts\\ArtMarketplace.sol",
  "compiler": {
    "name": "solc",
    "version": "0.8.21+commit.d9974bed.Emscripten.clang"
  },
  "schemaVersion": "3.4.16",
  "updatedAt": "2024-03-07T06:07:39.089Z",
  "networkType": "ethereum",
  "devdoc": {
    "errors": {
      "ERC721EnumerableForbiddenBatchMint()": [
        {
          "details": "Batch mint is not allowed."
        }
      ],
      "ERC721IncorrectOwner(address,uint256,address)": [
        {
          "details": "Indicates an error related to the ownership over a particular token. Used in transfers.",
          "params": {
            "owner": "Address of the current owner of a token.",
            "sender": "Address whose tokens are being transferred.",
            "tokenId": "Identifier number of a token."
          }
        }
      ],
      "ERC721InsufficientApproval(address,uint256)": [
        {
          "details": "Indicates a failure with the `operator`s approval. Used in transfers.",
          "params": {
            "operator": "Address that may be allowed to operate on tokens without being their owner.",
            "tokenId": "Identifier number of a token."
          }
        }
      ],
      "ERC721InvalidApprover(address)": [
        {
          "details": "Indicates a failure with the `approver` of a token to be approved. Used in approvals.",
          "params": {
            "approver": "Address initiating an approval operation."
          }
        }
      ],
      "ERC721InvalidOperator(address)": [
        {
          "details": "Indicates a failure with the `operator` to be approved. Used in approvals.",
          "params": {
            "operator": "Address that may be allowed to operate on tokens without being their owner."
          }
        }
      ],
      "ERC721InvalidOwner(address)": [
        {
          "details": "Indicates that an address can't be an owner. For example, `address(0)` is a forbidden owner in EIP-20. Used in balance queries.",
          "params": {
            "owner": "Address of the current owner of a token."
          }
        }
      ],
      "ERC721InvalidReceiver(address)": [
        {
          "details": "Indicates a failure with the token `receiver`. Used in transfers.",
          "params": {
            "receiver": "Address to which tokens are being transferred."
          }
        }
      ],
      "ERC721InvalidSender(address)": [
        {
          "details": "Indicates a failure with the token `sender`. Used in transfers.",
          "params": {
            "sender": "Address whose tokens are being transferred."
          }
        }
      ],
      "ERC721NonexistentToken(uint256)": [
        {
          "details": "Indicates a `tokenId` whose `owner` is the zero address.",
          "params": {
            "tokenId": "Identifier number of a token."
          }
        }
      ],
      "ERC721OutOfBoundsIndex(address,uint256)": [
        {
          "details": "An `owner`'s token query was out of bounds for `index`. NOTE: The owner being `address(0)` indicates a global out of bounds index."
        }
      ]
    },
    "events": {
      "Approval(address,address,uint256)": {
        "details": "Emitted when `owner` enables `approved` to manage the `tokenId` token."
      },
      "ApprovalForAll(address,address,bool)": {
        "details": "Emitted when `owner` enables or disables (`approved`) `operator` to manage all of its assets."
      },
      "Transfer(address,address,uint256)": {
        "details": "Emitted when `tokenId` token is transferred from `from` to `to`."
      }
    },
    "kind": "dev",
    "methods": {
      "approve(address,uint256)": {
        "details": "See {IERC721-approve}."
      },
      "balanceOf(address)": {
        "details": "See {IERC721-balanceOf}."
      },
      "getApproved(uint256)": {
        "details": "See {IERC721-getApproved}."
      },
      "isApprovedForAll(address,address)": {
        "details": "See {IERC721-isApprovedForAll}."
      },
      "name()": {
        "details": "See {IERC721Metadata-name}."
      },
      "ownerOf(uint256)": {
        "details": "See {IERC721-ownerOf}."
      },
      "safeTransferFrom(address,address,uint256)": {
        "details": "See {IERC721-safeTransferFrom}."
      },
      "safeTransferFrom(address,address,uint256,bytes)": {
        "details": "See {IERC721-safeTransferFrom}."
      },
      "setApprovalForAll(address,bool)": {
        "details": "See {IERC721-setApprovalForAll}."
      },
      "supportsInterface(bytes4)": {
        "details": "See {IERC165-supportsInterface}."
      },
      "symbol()": {
        "details": "See {IERC721Metadata-symbol}."
      },
      "tokenByIndex(uint256)": {
        "details": "See {IERC721Enumerable-tokenByIndex}."
      },
      "tokenOfOwnerByIndex(address,uint256)": {
        "details": "See {IERC721Enumerable-tokenOfOwnerByIndex}."
      },
      "tokenURI(uint256)": {
        "details": "See {IERC721Metadata-tokenURI}."
      },
      "totalSupply()": {
        "details": "See {IERC721Enumerable-totalSupply}."
      },
      "transferFrom(address,address,uint256)": {
        "details": "See {IERC721-transferFrom}."
      }
    },
    "version": 1
  },
  "userdoc": {
    "kind": "user",
    "methods": {},
    "version": 1
  }
}