{
  "contractName": "ArtMarketplace",
  "abi": [
    {
      "inputs": [
        {
          "internalType": "string",
          "name": "_name",
          "type": "string"
        },
        {
          "internalType": "string",
          "name": "_symbol",
          "type": "string"
        }
      ],
      "stateMutability": "nonpayable",
      "type": "constructor"
    },
    {
      "inputs": [],
      "name": "ERC721EnumerableForbiddenBatchMint",
      "type": "error"
    },
    {
      "inputs": [
        {
          "internalType": "address",
          "name": "sender",
          "type": "address"
        },
        {
          "internalType": "uint256",
          "name": "tokenId",
          "type": "uint256"
        },
        {
          "internalType": "address",
          "name": "owner",
          "type": "address"
        }
      ],
      "name": "ERC721IncorrectOwner",
      "type": "error"
    },
    {
      "inputs": [
        {
          "internalType": "address",
          "name": "operator",
          "type": "address"
        },
        {
          "internalType": "uint256",
          "name": "tokenId",
          "type": "uint256"
        }
      ],
      "name": "ERC721InsufficientApproval",
      "type": "error"
    },
    {
      "inputs": [
        {
          "internalType": "address",
          "name": "approver",
          "type": "address"
        }
      ],
      "name": "ERC721InvalidApprover",
      "type": "error"
    },
    {
      "inputs": [
        {
          "internalType": "address",
          "name": "operator",
          "type": "address"
        }
      ],
      "name": "ERC721InvalidOperator",
      "type": "error"
    },
    {
      "inputs": [
        {
          "internalType": "address",
          "name": "owner",
          "type": "address"
        }
      ],
      "name": "ERC721InvalidOwner",
      "type": "error"
    },
    {
      "inputs": [
        {
          "internalType": "address",
          "name": "receiver",
          "type": "address"
        }
      ],
      "name": "ERC721InvalidReceiver",
      "type": "error"
    },
    {
      "inputs": [
        {
          "internalType": "address",
          "name": "sender",
          "type": "address"
        }
      ],
      "name": "ERC721InvalidSender",
      "type": "error"
    },
    {
      "inputs": [
        {
          "internalType": "uint256",
          "name": "tokenId",
          "type": "uint256"
        }
      ],
      "name": "ERC721NonexistentToken",
      "type": "error"
    },
    {
      "inputs": [
        {
          "internalType": "address",
          "name": "owner",
          "type": "address"
        },
        {
          "internalType": "uint256",
          "name": "index",
          "type": "uint256"
        }
      ],
      "name": "ERC721OutOfBoundsIndex",
      "type": "error"
    },
    {
      "anonymous": false,
      "inputs": [
        {
          "indexed": true,
          "internalType": "address",
          "name": "owner",
          "type": "address"
        },
        {
          "indexed": true,
          "internalType": "address",
          "name": "approved",
          "type": "address"
        },
        {
          "indexed": true,
          "internalType": "uint256",
          "name": "tokenId",
          "type": "uint256"
        }
      ],
      "name": "Approval",
      "type": "event"
    },
    {
      "anonymous": false,
      "inputs": [
        {
          "indexed": true,
          "internalType": "address",
          "name": "owner",
          "type": "address"
        },
        {
          "indexed": true,
          "internalType": "address",
          "name": "operator",
          "type": "address"
        },
        {
          "indexed": false,
          "internalType": "bool",
          "name": "approved",
          "type": "bool"
        }
      ],
      "name": "ApprovalForAll",
      "type": "event"
    },
    {
      "anonymous": false,
      "inputs": [
        {
          "indexed": false,
          "internalType": "uint256",
          "name": "artId",
          "type": "uint256"
        },
        {
          "indexed": false,
          "internalType": "address",
          "name": "artistAddress",
          "type": "address"
        },
        {
          "indexed": false,
          "internalType": "string",
          "name": "title",
          "type": "string"
        },
        {
          "indexed": false,
          "internalType": "uint256",
          "name": "price",
          "type": "uint256"
        }
      ],
      "name": "ArtListed",
      "type": "event"
    },
    {
      "anonymous": false,
      "inputs": [
        {
          "indexed": false,
          "internalType": "uint256",
          "name": "artId",
          "type": "uint256"
        },
        {
          "indexed": false,
          "internalType": "address",
          "name": "buyerAddress",
          "type": "address"
        },
        {
          "indexed": false,
          "internalType": "uint256",
          "name": "price",
          "type": "uint256"
        }
      ],
      "name": "ArtPurchased",
      "type": "event"
    },
    {
      "anonymous": false,
      "inputs": [
        {
          "indexed": false,
          "internalType": "uint256",
          "name": "artId",
          "type": "uint256"
        },
        {
          "indexed": false,
          "internalType": "uint256",
          "name": "newPrice",
          "type": "uint256"
        }
      ],
      "name": "ArtResold",
      "type": "event"
    },
    {
      "anonymous": false,
      "inputs": [
        {
          "indexed": true,
          "internalType": "address",
          "name": "previousAddress",
          "type": "address"
        },
        {
          "indexed": true,
          "internalType": "address",
          "name": "newAddress",
          "type": "address"
        }
      ],
      "name": "BackendAddressSet",
      "type": "event"
    },
    {
      "anonymous": false,
      "inputs": [
        {
          "indexed": true,
          "internalType": "address",
          "name": "from",
          "type": "address"
        },
        {
          "indexed": true,
          "internalType": "address",
          "name": "to",
          "type": "address"
        },
        {
          "indexed": true,
          "internalType": "uint256",
          "name": "tokenId",
          "type": "uint256"
        }
      ],
      "name": "Transfer",
      "type": "event"
    },
    {
      "stateMutability": "payable",
      "type": "fallback",
      "payable": true
    },
    {
      "inputs": [
        {
          "internalType": "address",
          "name": "to",
          "type": "address"
        },
        {
          "internalType": "uint256",
          "name": "tokenId",
          "type": "uint256"
        }
      ],
      "name": "approve",
      "outputs": [],
      "stateMutability": "nonpayable",
      "type": "function"
    },
    {
      "inputs": [],
      "name": "backendAddress",
      "outputs": [
        {
          "internalType": "address",
          "name": "",
          "type": "address"
        }
      ],
      "stateMutability": "view",
      "type": "function",
      "constant": true
    },
    {
      "inputs": [
        {
          "internalType": "address",
          "name": "owner",
          "type": "address"
        }
      ],
      "name": "balanceOf",
      "outputs": [
        {
          "internalType": "uint256",
          "name": "",
          "type": "uint256"
        }
      ],
      "stateMutability": "view",
      "type": "function",
      "constant": true
    },
    {
      "inputs": [
        {
          "internalType": "uint256",
          "name": "tokenId",
          "type": "uint256"
        }
      ],
      "name": "getApproved",
      "outputs": [
        {
          "internalType": "address",
          "name": "",
          "type": "address"
        }
      ],
      "stateMutability": "view",
      "type": "function",
      "constant": true
    },
    {
      "inputs": [
        {
          "internalType": "address",
          "name": "owner",
          "type": "address"
        },
        {
          "internalType": "address",
          "name": "operator",
          "type": "address"
        }
      ],
      "name": "isApprovedForAll",
      "outputs": [
        {
          "internalType": "bool",
          "name": "",
          "type": "bool"
        }
      ],
      "stateMutability": "view",
      "type": "function",
      "constant": true
    },
    {
      "inputs": [],
      "name": "name",
      "outputs": [
        {
          "internalType": "string",
          "name": "",
          "type": "string"
        }
      ],
      "stateMutability": "view",
      "type": "function",
      "constant": true
    },
    {
      "inputs": [
        {
          "internalType": "uint256",
          "name": "tokenId",
          "type": "uint256"
        }
      ],
      "name": "ownerOf",
      "outputs": [
        {
          "internalType": "address",
          "name": "",
          "type": "address"
        }
      ],
      "stateMutability": "view",
      "type": "function",
      "constant": true
    },
    {
      "inputs": [
        {
          "internalType": "address",
          "name": "from",
          "type": "address"
        },
        {
          "internalType": "address",
          "name": "to",
          "type": "address"
        },
        {
          "internalType": "uint256",
          "name": "tokenId",
          "type": "uint256"
        }
      ],
      "name": "safeTransferFrom",
      "outputs": [],
      "stateMutability": "nonpayable",
      "type": "function"
    },
    {
      "inputs": [
        {
          "internalType": "address",
          "name": "from",
          "type": "address"
        },
        {
          "internalType": "address",
          "name": "to",
          "type": "address"
        },
        {
          "internalType": "uint256",
          "name": "tokenId",
          "type": "uint256"
        },
        {
          "internalType": "bytes",
          "name": "data",
          "type": "bytes"
        }
      ],
      "name": "safeTransferFrom",
      "outputs": [],
      "stateMutability": "nonpayable",
      "type": "function"
    },
    {
      "inputs": [
        {
          "internalType": "address",
          "name": "operator",
          "type": "address"
        },
        {
          "internalType": "bool",
          "name": "approved",
          "type": "bool"
        }
      ],
      "name": "setApprovalForAll",
      "outputs": [],
      "stateMutability": "nonpayable",
      "type": "function"
    },
    {
      "inputs": [
        {
          "internalType": "bytes4",
          "name": "interfaceId",
          "type": "bytes4"
        }
      ],
      "name": "supportsInterface",
      "outputs": [
        {
          "internalType": "bool",
          "name": "",
          "type": "bool"
        }
      ],
      "stateMutability": "view",
      "type": "function",
      "constant": true
    },
    {
      "inputs": [],
      "name": "symbol",
      "outputs": [
        {
          "internalType": "string",
          "name": "",
          "type": "string"
        }
      ],
      "stateMutability": "view",
      "type": "function",
      "constant": true
    },
    {
      "inputs": [
        {
          "internalType": "uint256",
          "name": "index",
          "type": "uint256"
        }
      ],
      "name": "tokenByIndex",
      "outputs": [
        {
          "internalType": "uint256",
          "name": "",
          "type": "uint256"
        }
      ],
      "stateMutability": "view",
      "type": "function",
      "constant": true
    },
    {
      "inputs": [
        {
          "internalType": "address",
          "name": "owner",
          "type": "address"
        },
        {
          "internalType": "uint256",
          "name": "index",
          "type": "uint256"
        }
      ],
      "name": "tokenOfOwnerByIndex",
      "outputs": [
        {
          "internalType": "uint256",
          "name": "",
          "type": "uint256"
        }
      ],
      "stateMutability": "view",
      "type": "function",
      "constant": true
    },
    {
      "inputs": [
        {
          "internalType": "uint256",
          "name": "tokenId",
          "type": "uint256"
        }
      ],
      "name": "tokenURI",
      "outputs": [
        {
          "internalType": "string",
          "name": "",
          "type": "string"
        }
      ],
      "stateMutability": "view",
      "type": "function",
      "constant": true
    },
    {
      "inputs": [],
      "name": "totalSupply",
      "outputs": [
        {
          "internalType": "uint256",
          "name": "",
          "type": "uint256"
        }
      ],
      "stateMutability": "view",
      "type": "function",
      "constant": true
    },
    {
      "inputs": [
        {
          "internalType": "address",
          "name": "from",
          "type": "address"
        },
        {
          "internalType": "address",
          "name": "to",
          "type": "address"
        },
        {
          "internalType": "uint256",
          "name": "tokenId",
          "type": "uint256"
        }
      ],
      "name": "transferFrom",
      "outputs": [],
      "stateMutability": "nonpayable",
      "type": "function"
    },
    {
      "stateMutability": "payable",
      "type": "receive",
      "payable": true
    },
    {
      "inputs": [
        {
          "internalType": "address",
          "name": "_backendAddress",
          "type": "address"
        }
      ],
      "name": "setBackendAddress",
      "outputs": [],
      "stateMutability": "nonpayable",
      "type": "function"
    },
    {
      "inputs": [
        {
          "internalType": "string",
          "name": "_title",
          "type": "string"
        },
        {
          "internalType": "uint256",
          "name": "_price",
          "type": "uint256"
        }
      ],
      "name": "listArt",
      "outputs": [],
      "stateMutability": "nonpayable",
      "type": "function"
    },
    {
      "inputs": [
        {
          "internalType": "uint256",
          "name": "_artId",
          "type": "uint256"
        }
      ],
      "name": "buyArt",
      "outputs": [],
      "stateMutability": "payable",
      "type": "function",
      "payable": true
    },
    {
      "inputs": [
        {
          "internalType": "uint256",
          "name": "_artId",
          "type": "uint256"
        },
        {
          "internalType": "uint256",
          "name": "_newPrice",
          "type": "uint256"
        }
      ],
      "name": "resellArt",
      "outputs": [],
      "stateMutability": "nonpayable",
      "type": "function"
    }
  ],
  "bytecode": "0x608060405234801562000010575f80fd5b506040516200359b3803806200359b8339818101604052810190620000369190620001ea565b8181815f9081620000489190620004a4565b5080600190816200005a9190620004a4565b505050505062000588565b5f604051905090565b5f80fd5b5f80fd5b5f80fd5b5f80fd5b5f601f19601f8301169050919050565b7f4e487b71000000000000000000000000000000000000000000000000000000005f52604160045260245ffd5b620000c6826200007e565b810181811067ffffffffffffffff82111715620000e857620000e76200008e565b5b80604052505050565b5f620000fc62000065565b90506200010a8282620000bb565b919050565b5f67ffffffffffffffff8211156200012c576200012b6200008e565b5b62000137826200007e565b9050602081019050919050565b5f5b838110156200016357808201518184015260208101905062000146565b5f8484015250505050565b5f620001846200017e846200010f565b620000f1565b905082815260208101848484011115620001a357620001a26200007a565b5b620001b084828562000144565b509392505050565b5f82601f830112620001cf57620001ce62000076565b5b8151620001e18482602086016200016e565b91505092915050565b5f80604083850312156200020357620002026200006e565b5b5f83015167ffffffffffffffff81111562000223576200022262000072565b5b6200023185828601620001b8565b925050602083015167ffffffffffffffff81111562000255576200025462000072565b5b6200026385828601620001b8565b9150509250929050565b5f81519050919050565b7f4e487b71000000000000000000000000000000000000000000000000000000005f52602260045260245ffd5b5f6002820490506001821680620002bc57607f821691505b602082108103620002d257620002d162000277565b5b50919050565b5f819050815f5260205f209050919050565b5f6020601f8301049050919050565b5f82821b905092915050565b5f60088302620003367fffffffffffffffffffffffffffffffffffffffffffffffffffffffffffffffff82620002f9565b620003428683620002f9565b95508019841693508086168417925050509392505050565b5f819050919050565b5f819050919050565b5f6200038c6200038662000380846200035a565b62000363565b6200035a565b9050919050565b5f819050919050565b620003a7836200036c565b620003bf620003b68262000393565b84845462000305565b825550505050565b5f90565b620003d5620003c7565b620003e28184846200039c565b505050565b5b818110156200040957620003fd5f82620003cb565b600181019050620003e8565b5050565b601f82111562000458576200042281620002d8565b6200042d84620002ea565b810160208510156200043d578190505b620004556200044c85620002ea565b830182620003e7565b50505b505050565b5f82821c905092915050565b5f6200047a5f19846008026200045d565b1980831691505092915050565b5f62000494838362000469565b9150826002028217905092915050565b620004af826200026d565b67ffffffffffffffff811115620004cb57620004ca6200008e565b5b620004d78254620002a4565b620004e48282856200040d565b5f60209050601f8311600181146200051a575f841562000505578287015190505b62000511858262000487565b86555062000580565b601f1984166200052a86620002d8565b5f5b8281101562000553578489015182556001820191506020850194506020810190506200052c565b868310156200057357848901516200056f601f89168262000469565b8355505b6001600288020188555050505b505050505050565b61300580620005965f395ff3fe60806040526004361061012d575f3560e01c80634f6ccce7116100aa57806395d89b411161006e57806395d89b411461040c578063a22cb46514610436578063b88d4fde1461045e578063c87b56dd14610486578063e985e9c5146104c2578063fc7a900b146104fe57610134565b80634f6ccce7146103085780636352211e1461034457806364262dcc1461038057806370a08231146103a857806389c6545a146103e457610134565b80631815ce7d116100f15780631815ce7d1461022a57806318160ddd1461025257806323b872dd1461027c5780632f745c59146102a457806342842e0e146102e057610134565b806301ffc9a71461013657806306fdde0314610172578063081812fc1461019c578063095ea7b3146101d85780630d72d57f1461020057610134565b3661013457005b005b348015610141575f80fd5b5061015c600480360381019061015791906123af565b61051a565b60405161016991906123f4565b60405180910390f35b34801561017d575f80fd5b50610186610593565b6040516101939190612497565b60405180910390f35b3480156101a7575f80fd5b506101c260048036038101906101bd91906124ea565b610622565b6040516101cf9190612554565b60405180910390f35b3480156101e3575f80fd5b506101fe60048036038101906101f99190612597565b61063d565b005b34801561020b575f80fd5b50610214610653565b6040516102219190612554565b60405180910390f35b348015610235575f80fd5b50610250600480360381019061024b91906125d5565b610678565b005b34801561025d575f80fd5b506102666107a4565b604051610273919061260f565b60405180910390f35b348015610287575f80fd5b506102a2600480360381019061029d9190612628565b6107b0565b005b3480156102af575f80fd5b506102ca60048036038101906102c59190612597565b6108af565b6040516102d7919061260f565b60405180910390f35b3480156102eb575f80fd5b5061030660048036038101906103019190612628565b610953565b005b348015610313575f80fd5b5061032e600480360381019061032991906124ea565b610972565b60405161033b919061260f565b60405180910390f35b34801561034f575f80fd5b5061036a600480360381019061036591906124ea565b6109e4565b6040516103779190612554565b60405180910390f35b34801561038b575f80fd5b506103a660048036038101906103a19190612678565b6109f5565b005b3480156103b3575f80fd5b506103ce60048036038101906103c991906125d5565b610abb565b6040516103db919061260f565b60405180910390f35b3480156103ef575f80fd5b5061040a60048036038101906104059190612717565b610b71565b005b348015610417575f80fd5b50610420610bd7565b60405161042d9190612497565b60405180910390f35b348015610441575f80fd5b5061045c6004803603810190610457919061279e565b610c67565b005b348015610469575f80fd5b50610484600480360381019061047f9190612904565b610c7d565b005b348015610491575f80fd5b506104ac60048036038101906104a791906124ea565b610c9a565b6040516104b99190612497565b60405180910390f35b3480156104cd575f80fd5b506104e860048036038101906104e39190612984565b610d00565b6040516104f591906123f4565b60405180910390f35b610518600480360381019061051391906124ea565b610d8e565b005b5f7f780e9d63000000000000000000000000000000000000000000000000000000007bffffffffffffffffffffffffffffffffffffffffffffffffffffffff1916827bffffffffffffffffffffffffffffffffffffffffffffffffffffffff1916148061058c575061058b82610e73565b5b9050919050565b60605f80546105a1906129ef565b80601f01602080910402602001604051908101604052809291908181526020018280546105cd906129ef565b80156106185780601f106105ef57610100808354040283529160200191610618565b820191905f5260205f20905b8154815290600101906020018083116105fb57829003601f168201915b5050505050905090565b5f61062c82610f54565b5061063682610fda565b9050919050565b61064f828261064a611013565b61101a565b5050565b600a5f9054906101000a900473ffffffffffffffffffffffffffffffffffffffff1681565b5f73ffffffffffffffffffffffffffffffffffffffff16600a5f9054906101000a900473ffffffffffffffffffffffffffffffffffffffff1673ffffffffffffffffffffffffffffffffffffffff1614610707576040517f08c379a00000000000000000000000000000000000000000000000000000000081526004016106fe90612a69565b60405180910390fd5b8073ffffffffffffffffffffffffffffffffffffffff165f73ffffffffffffffffffffffffffffffffffffffff167fe57bd09dbcdbe357e858db0209e5e58f4f19123195b2dd325a443acd1433689d60405160405180910390a380600a5f6101000a81548173ffffffffffffffffffffffffffffffffffffffff021916908373ffffffffffffffffffffffffffffffffffffffff16021790555050565b5f600880549050905090565b5f73ffffffffffffffffffffffffffffffffffffffff168273ffffffffffffffffffffffffffffffffffffffff1603610820575f6040517f64a0ae920000000000000000000000000000000000000000000000000000000081526004016108179190612554565b60405180910390fd5b5f610833838361082e611013565b61102c565b90508373ffffffffffffffffffffffffffffffffffffffff168173ffffffffffffffffffffffffffffffffffffffff16146108a9578382826040517f64283d7b0000000000000000000000000000000000000000000000000000000081526004016108a093929190612a87565b60405180910390fd5b50505050565b5f6108b983610abb565b82106108fe5782826040517fa57d13dc0000000000000000000000000000000000000000000000000000000081526004016108f5929190612abc565b60405180910390fd5b60065f8473ffffffffffffffffffffffffffffffffffffffff1673ffffffffffffffffffffffffffffffffffffffff1681526020019081526020015f205f8381526020019081526020015f2054905092915050565b61096d83838360405180602001604052805f815250610c7d565b505050565b5f61097b6107a4565b82106109c0575f826040517fa57d13dc0000000000000000000000000000000000000000000000000000000081526004016109b7929190612abc565b60405180910390fd5b600882815481106109d4576109d3612ae3565b5b905f5260205f2001549050919050565b5f6109ee82610f54565b9050919050565b3373ffffffffffffffffffffffffffffffffffffffff16610a15836109e4565b73ffffffffffffffffffffffffffffffffffffffff1614610a6b576040517f08c379a0000000000000000000000000000000000000000000000000000000008152600401610a6290612b5a565b60405180910390fd5b5f8111610aad576040517f08c379a0000000000000000000000000000000000000000000000000000000008152600401610aa490612be8565b60405180910390fd5b610ab78282611146565b5050565b5f8073ffffffffffffffffffffffffffffffffffffffff168273ffffffffffffffffffffffffffffffffffffffff1603610b2c575f6040517f89c62b64000000000000000000000000000000000000000000000000000000008152600401610b239190612554565b60405180910390fd5b60035f8373ffffffffffffffffffffffffffffffffffffffff1673ffffffffffffffffffffffffffffffffffffffff1681526020019081526020015f20549050919050565b5f6001610b7c6107a4565b610b869190612c33565b9050610b923382611212565b7fd3188403d784eae1433372706d9b1cedaad58c68620e9fe7f76731fadba6feca8133868686604051610bc9959493929190612c92565b60405180910390a150505050565b606060018054610be6906129ef565b80601f0160208091040260200160405190810160405280929190818152602001828054610c12906129ef565b8015610c5d5780601f10610c3457610100808354040283529160200191610c5d565b820191905f5260205f20905b815481529060010190602001808311610c4057829003601f168201915b5050505050905090565b610c79610c72611013565b8383611305565b5050565b610c888484846107b0565b610c948484848461146e565b50505050565b6060610ca582610f54565b505f610caf611620565b90505f815111610ccd5760405180602001604052805f815250610cf8565b80610cd784611636565b604051602001610ce8929190612d18565b6040516020818303038152906040525b915050919050565b5f60055f8473ffffffffffffffffffffffffffffffffffffffff1673ffffffffffffffffffffffffffffffffffffffff1681526020019081526020015f205f8373ffffffffffffffffffffffffffffffffffffffff1673ffffffffffffffffffffffffffffffffffffffff1681526020019081526020015f205f9054906101000a900460ff16905092915050565b5f73ffffffffffffffffffffffffffffffffffffffff16610dae826109e4565b73ffffffffffffffffffffffffffffffffffffffff1603610e04576040517f08c379a0000000000000000000000000000000000000000000000000000000008152600401610dfb90612d85565b60405180910390fd5b5f610e0e826109e4565b90505f349050610e1f823385611700565b8173ffffffffffffffffffffffffffffffffffffffff166108fc8290811502906040515f60405180830381858888f19350505050158015610e62573d5f803e3d5ffd5b50610e6e833383611868565b505050565b5f7f80ac58cd000000000000000000000000000000000000000000000000000000007bffffffffffffffffffffffffffffffffffffffffffffffffffffffff1916827bffffffffffffffffffffffffffffffffffffffffffffffffffffffff19161480610f3d57507f5b5e139f000000000000000000000000000000000000000000000000000000007bffffffffffffffffffffffffffffffffffffffffffffffffffffffff1916827bffffffffffffffffffffffffffffffffffffffffffffffffffffffff1916145b80610f4d5750610f4c82611937565b5b9050919050565b5f80610f5f836119a0565b90505f73ffffffffffffffffffffffffffffffffffffffff168173ffffffffffffffffffffffffffffffffffffffff1603610fd157826040517f7e273289000000000000000000000000000000000000000000000000000000008152600401610fc8919061260f565b60405180910390fd5b80915050919050565b5f60045f8381526020019081526020015f205f9054906101000a900473ffffffffffffffffffffffffffffffffffffffff169050919050565b5f33905090565b61102783838360016119d9565b505050565b5f80611039858585611b98565b90505f73ffffffffffffffffffffffffffffffffffffffff168173ffffffffffffffffffffffffffffffffffffffff160361107c5761107784611da3565b6110bb565b8473ffffffffffffffffffffffffffffffffffffffff168173ffffffffffffffffffffffffffffffffffffffff16146110ba576110b98185611de7565b5b5b5f73ffffffffffffffffffffffffffffffffffffffff168573ffffffffffffffffffffffffffffffffffffffff16036110fc576110f784611f31565b61113b565b8473ffffffffffffffffffffffffffffffffffffffff168173ffffffffffffffffffffffffffffffffffffffff161461113a576111398585611ff1565b5b5b809150509392505050565b600a5f9054906101000a900473ffffffffffffffffffffffffffffffffffffffff1673ffffffffffffffffffffffffffffffffffffffff163373ffffffffffffffffffffffffffffffffffffffff16146111d5576040517f08c379a00000000000000000000000000000000000000000000000000000000081526004016111cc90612ded565b60405180910390fd5b7fc529c3d67faf1bb75a71be010effaf862cddba46a68fef8282c60aad499029048282604051611206929190612e0b565b60405180910390a15050565b5f73ffffffffffffffffffffffffffffffffffffffff168273ffffffffffffffffffffffffffffffffffffffff1603611282575f6040517f64a0ae920000000000000000000000000000000000000000000000000000000081526004016112799190612554565b60405180910390fd5b5f61128e83835f61102c565b90505f73ffffffffffffffffffffffffffffffffffffffff168173ffffffffffffffffffffffffffffffffffffffff1614611300575f6040517f73c6ac6e0000000000000000000000000000000000000000000000000000000081526004016112f79190612554565b60405180910390fd5b505050565b5f73ffffffffffffffffffffffffffffffffffffffff168273ffffffffffffffffffffffffffffffffffffffff160361137557816040517f5b08ba1800000000000000000000000000000000000000000000000000000000815260040161136c9190612554565b60405180910390fd5b8060055f8573ffffffffffffffffffffffffffffffffffffffff1673ffffffffffffffffffffffffffffffffffffffff1681526020019081526020015f205f8473ffffffffffffffffffffffffffffffffffffffff1673ffffffffffffffffffffffffffffffffffffffff1681526020019081526020015f205f6101000a81548160ff0219169083151502179055508173ffffffffffffffffffffffffffffffffffffffff168373ffffffffffffffffffffffffffffffffffffffff167f17307eab39ab6107e8899845ad3d59bd9653f200f220920489ca2b5937696c318360405161146191906123f4565b60405180910390a3505050565b5f8373ffffffffffffffffffffffffffffffffffffffff163b111561161a578273ffffffffffffffffffffffffffffffffffffffff1663150b7a026114b1611013565b8685856040518563ffffffff1660e01b81526004016114d39493929190612e84565b6020604051808303815f875af192505050801561150e57506040513d601f19601f8201168201806040525081019061150b9190612ee2565b60015b61158f573d805f811461153c576040519150601f19603f3d011682016040523d82523d5f602084013e611541565b606091505b505f81510361158757836040517f64a0ae9200000000000000000000000000000000000000000000000000000000815260040161157e9190612554565b60405180910390fd5b805181602001fd5b63150b7a0260e01b7bffffffffffffffffffffffffffffffffffffffffffffffffffffffff1916817bffffffffffffffffffffffffffffffffffffffffffffffffffffffff19161461161857836040517f64a0ae9200000000000000000000000000000000000000000000000000000000815260040161160f9190612554565b60405180910390fd5b505b50505050565b606060405180602001604052805f815250905090565b60605f600161164484612075565b0190505f8167ffffffffffffffff811115611662576116616127e0565b5b6040519080825280601f01601f1916602001820160405280156116945781602001600182028036833780820191505090505b5090505f82602001820190505b6001156116f5578080600190039150507f3031323334353637383961626364656600000000000000000000000000000000600a86061a8153600a85816116ea576116e9612f0d565b5b0494505f85036116a1575b819350505050919050565b5f73ffffffffffffffffffffffffffffffffffffffff168273ffffffffffffffffffffffffffffffffffffffff1603611770575f6040517f64a0ae920000000000000000000000000000000000000000000000000000000081526004016117679190612554565b60405180910390fd5b5f61177c83835f61102c565b90505f73ffffffffffffffffffffffffffffffffffffffff168173ffffffffffffffffffffffffffffffffffffffff16036117ee57816040517f7e2732890000000000000000000000000000000000000000000000000000000081526004016117e5919061260f565b60405180910390fd5b8373ffffffffffffffffffffffffffffffffffffffff168173ffffffffffffffffffffffffffffffffffffffff1614611862578382826040517f64283d7b00000000000000000000000000000000000000000000000000000000815260040161185993929190612a87565b60405180910390fd5b50505050565b600a5f9054906101000a900473ffffffffffffffffffffffffffffffffffffffff1673ffffffffffffffffffffffffffffffffffffffff163373ffffffffffffffffffffffffffffffffffffffff16146118f7576040517f08c379a00000000000000000000000000000000000000000000000000000000081526004016118ee90612ded565b60405180910390fd5b7f09cc7029faf4d636210031bcf7bfee46a9ef4ba189b8a930566d795177df6ac583838360405161192a93929190612f3a565b60405180910390a1505050565b5f7f01ffc9a7000000000000000000000000000000000000000000000000000000007bffffffffffffffffffffffffffffffffffffffffffffffffffffffff1916827bffffffffffffffffffffffffffffffffffffffffffffffffffffffff1916149050919050565b5f60025f8381526020019081526020015f205f9054906101000a900473ffffffffffffffffffffffffffffffffffffffff169050919050565b8080611a1157505f73ffffffffffffffffffffffffffffffffffffffff168273ffffffffffffffffffffffffffffffffffffffff1614155b15611b43575f611a2084610f54565b90505f73ffffffffffffffffffffffffffffffffffffffff168373ffffffffffffffffffffffffffffffffffffffff1614158015611a8a57508273ffffffffffffffffffffffffffffffffffffffff168173ffffffffffffffffffffffffffffffffffffffff1614155b8015611a9d5750611a9b8184610d00565b155b15611adf57826040517fa9fbf51f000000000000000000000000000000000000000000000000000000008152600401611ad69190612554565b60405180910390fd5b8115611b4157838573ffffffffffffffffffffffffffffffffffffffff168273ffffffffffffffffffffffffffffffffffffffff167f8c5be1e5ebec7d5bd14f71427d1e84f3dd0314c0f7b2291e5b200ac8c7c3b92560405160405180910390a45b505b8360045f8581526020019081526020015f205f6101000a81548173ffffffffffffffffffffffffffffffffffffffff021916908373ffffffffffffffffffffffffffffffffffffffff16021790555050505050565b5f80611ba3846119a0565b90505f73ffffffffffffffffffffffffffffffffffffffff168373ffffffffffffffffffffffffffffffffffffffff1614611be457611be38184866121c6565b5b5f73ffffffffffffffffffffffffffffffffffffffff168173ffffffffffffffffffffffffffffffffffffffff1614611c6f57611c235f855f806119d9565b600160035f8373ffffffffffffffffffffffffffffffffffffffff1673ffffffffffffffffffffffffffffffffffffffff1681526020019081526020015f205f82825403925050819055505b5f73ffffffffffffffffffffffffffffffffffffffff168573ffffffffffffffffffffffffffffffffffffffff1614611cee57600160035f8773ffffffffffffffffffffffffffffffffffffffff1673ffffffffffffffffffffffffffffffffffffffff1681526020019081526020015f205f82825401925050819055505b8460025f8681526020019081526020015f205f6101000a81548173ffffffffffffffffffffffffffffffffffffffff021916908373ffffffffffffffffffffffffffffffffffffffff160217905550838573ffffffffffffffffffffffffffffffffffffffff168273ffffffffffffffffffffffffffffffffffffffff167fddf252ad1be2c89b69c2b068fc378daa952ba7f163c4a11628f55a4df523b3ef60405160405180910390a4809150509392505050565b60088054905060095f8381526020019081526020015f2081905550600881908060018154018082558091505060019003905f5260205f20015f909190919091505550565b5f611df183610abb565b90505f60075f8481526020019081526020015f20549050818114611ec8575f60065f8673ffffffffffffffffffffffffffffffffffffffff1673ffffffffffffffffffffffffffffffffffffffff1681526020019081526020015f205f8481526020019081526020015f205490508060065f8773ffffffffffffffffffffffffffffffffffffffff1673ffffffffffffffffffffffffffffffffffffffff1681526020019081526020015f205f8481526020019081526020015f20819055508160075f8381526020019081526020015f2081905550505b60075f8481526020019081526020015f205f905560065f8573ffffffffffffffffffffffffffffffffffffffff1673ffffffffffffffffffffffffffffffffffffffff1681526020019081526020015f205f8381526020019081526020015f205f905550505050565b5f6001600880549050611f449190612f6f565b90505f60095f8481526020019081526020015f205490505f60088381548110611f7057611f6f612ae3565b5b905f5260205f20015490508060088381548110611f9057611f8f612ae3565b5b905f5260205f2001819055508160095f8381526020019081526020015f208190555060095f8581526020019081526020015f205f90556008805480611fd857611fd7612fa2565b5b600190038181905f5260205f20015f9055905550505050565b5f6001611ffd84610abb565b6120079190612f6f565b90508160065f8573ffffffffffffffffffffffffffffffffffffffff1673ffffffffffffffffffffffffffffffffffffffff1681526020019081526020015f205f8381526020019081526020015f20819055508060075f8481526020019081526020015f2081905550505050565b5f805f90507a184f03e93ff9f4daa797ed6e38ed64bf6a1f01000000000000000083106120d1577a184f03e93ff9f4daa797ed6e38ed64bf6a1f01000000000000000083816120c7576120c6612f0d565b5b0492506040810190505b6d04ee2d6d415b85acef8100000000831061210e576d04ee2d6d415b85acef8100000000838161210457612103612f0d565b5b0492506020810190505b662386f26fc10000831061213d57662386f26fc10000838161213357612132612f0d565b5b0492506010810190505b6305f5e1008310612166576305f5e100838161215c5761215b612f0d565b5b0492506008810190505b612710831061218b57612710838161218157612180612f0d565b5b0492506004810190505b606483106121ae57606483816121a4576121a3612f0d565b5b0492506002810190505b600a83106121bd576001810190505b80915050919050565b6121d1838383612289565b612284575f73ffffffffffffffffffffffffffffffffffffffff168373ffffffffffffffffffffffffffffffffffffffff160361224557806040517f7e27328900000000000000000000000000000000000000000000000000000000815260040161223c919061260f565b60405180910390fd5b81816040517f177e802f00000000000000000000000000000000000000000000000000000000815260040161227b929190612abc565b60405180910390fd5b505050565b5f8073ffffffffffffffffffffffffffffffffffffffff168373ffffffffffffffffffffffffffffffffffffffff161415801561234057508273ffffffffffffffffffffffffffffffffffffffff168473ffffffffffffffffffffffffffffffffffffffff16148061230157506123008484610d00565b5b8061233f57508273ffffffffffffffffffffffffffffffffffffffff1661232783610fda565b73ffffffffffffffffffffffffffffffffffffffff16145b5b90509392505050565b5f604051905090565b5f80fd5b5f80fd5b5f7fffffffff0000000000000000000000000000000000000000000000000000000082169050919050565b61238e8161235a565b8114612398575f80fd5b50565b5f813590506123a981612385565b92915050565b5f602082840312156123c4576123c3612352565b5b5f6123d18482850161239b565b91505092915050565b5f8115159050919050565b6123ee816123da565b82525050565b5f6020820190506124075f8301846123e5565b92915050565b5f81519050919050565b5f82825260208201905092915050565b5f5b83811015612444578082015181840152602081019050612429565b5f8484015250505050565b5f601f19601f8301169050919050565b5f6124698261240d565b6124738185612417565b9350612483818560208601612427565b61248c8161244f565b840191505092915050565b5f6020820190508181035f8301526124af818461245f565b905092915050565b5f819050919050565b6124c9816124b7565b81146124d3575f80fd5b50565b5f813590506124e4816124c0565b92915050565b5f602082840312156124ff576124fe612352565b5b5f61250c848285016124d6565b91505092915050565b5f73ffffffffffffffffffffffffffffffffffffffff82169050919050565b5f61253e82612515565b9050919050565b61254e81612534565b82525050565b5f6020820190506125675f830184612545565b92915050565b61257681612534565b8114612580575f80fd5b50565b5f813590506125918161256d565b92915050565b5f80604083850312156125ad576125ac612352565b5b5f6125ba85828601612583565b92505060206125cb858286016124d6565b9150509250929050565b5f602082840312156125ea576125e9612352565b5b5f6125f784828501612583565b91505092915050565b612609816124b7565b82525050565b5f6020820190506126225f830184612600565b92915050565b5f805f6060848603121561263f5761263e612352565b5b5f61264c86828701612583565b935050602061265d86828701612583565b925050604061266e868287016124d6565b9150509250925092565b5f806040838503121561268e5761268d612352565b5b5f61269b858286016124d6565b92505060206126ac858286016124d6565b9150509250929050565b5f80fd5b5f80fd5b5f80fd5b5f8083601f8401126126d7576126d66126b6565b5b8235905067ffffffffffffffff8111156126f4576126f36126ba565b5b6020830191508360018202830111156127105761270f6126be565b5b9250929050565b5f805f6040848603121561272e5761272d612352565b5b5f84013567ffffffffffffffff81111561274b5761274a612356565b5b612757868287016126c2565b9350935050602061276a868287016124d6565b9150509250925092565b61277d816123da565b8114612787575f80fd5b50565b5f8135905061279881612774565b92915050565b5f80604083850312156127b4576127b3612352565b5b5f6127c185828601612583565b92505060206127d28582860161278a565b9150509250929050565b5f80fd5b7f4e487b71000000000000000000000000000000000000000000000000000000005f52604160045260245ffd5b6128168261244f565b810181811067ffffffffffffffff82111715612835576128346127e0565b5b80604052505050565b5f612847612349565b9050612853828261280d565b919050565b5f67ffffffffffffffff821115612872576128716127e0565b5b61287b8261244f565b9050602081019050919050565b828183375f83830152505050565b5f6128a86128a384612858565b61283e565b9050828152602081018484840111156128c4576128c36127dc565b5b6128cf848285612888565b509392505050565b5f82601f8301126128eb576128ea6126b6565b5b81356128fb848260208601612896565b91505092915050565b5f805f806080858703121561291c5761291b612352565b5b5f61292987828801612583565b945050602061293a87828801612583565b935050604061294b878288016124d6565b925050606085013567ffffffffffffffff81111561296c5761296b612356565b5b612978878288016128d7565b91505092959194509250565b5f806040838503121561299a57612999612352565b5b5f6129a785828601612583565b92505060206129b885828601612583565b9150509250929050565b7f4e487b71000000000000000000000000000000000000000000000000000000005f52602260045260245ffd5b5f6002820490506001821680612a0657607f821691505b602082108103612a1957612a186129c2565b5b50919050565b7f4261636b656e64206164647265737320616c72656164792073657400000000005f82015250565b5f612a53601b83612417565b9150612a5e82612a1f565b602082019050919050565b5f6020820190508181035f830152612a8081612a47565b9050919050565b5f606082019050612a9a5f830186612545565b612aa76020830185612600565b612ab46040830184612545565b949350505050565b5f604082019050612acf5f830185612545565b612adc6020830184612600565b9392505050565b7f4e487b71000000000000000000000000000000000000000000000000000000005f52603260045260245ffd5b7f4e6f7420746865206f776e6572206f66207468652061727400000000000000005f82015250565b5f612b44601883612417565b9150612b4f82612b10565b602082019050919050565b5f6020820190508181035f830152612b7181612b38565b9050919050565b7f50726963652073686f756c642062652067726561746572207468616e207a65725f8201527f6f00000000000000000000000000000000000000000000000000000000000000602082015250565b5f612bd2602183612417565b9150612bdd82612b78565b604082019050919050565b5f6020820190508181035f830152612bff81612bc6565b9050919050565b7f4e487b71000000000000000000000000000000000000000000000000000000005f52601160045260245ffd5b5f612c3d826124b7565b9150612c48836124b7565b9250828201905080821115612c6057612c5f612c06565b5b92915050565b5f612c718385612417565b9350612c7e838584612888565b612c878361244f565b840190509392505050565b5f608082019050612ca55f830188612600565b612cb26020830187612545565b8181036040830152612cc5818587612c66565b9050612cd46060830184612600565b9695505050505050565b5f81905092915050565b5f612cf28261240d565b612cfc8185612cde565b9350612d0c818560208601612427565b80840191505092915050565b5f612d238285612ce8565b9150612d2f8284612ce8565b91508190509392505050565b7f417274206e6f74206c69737465640000000000000000000000000000000000005f82015250565b5f612d6f600e83612417565b9150612d7a82612d3b565b602082019050919050565b5f6020820190508181035f830152612d9c81612d63565b9050919050565b7f556e617574686f72697a656400000000000000000000000000000000000000005f82015250565b5f612dd7600c83612417565b9150612de282612da3565b602082019050919050565b5f6020820190508181035f830152612e0481612dcb565b9050919050565b5f604082019050612e1e5f830185612600565b612e2b6020830184612600565b9392505050565b5f81519050919050565b5f82825260208201905092915050565b5f612e5682612e32565b612e608185612e3c565b9350612e70818560208601612427565b612e798161244f565b840191505092915050565b5f608082019050612e975f830187612545565b612ea46020830186612545565b612eb16040830185612600565b8181036060830152612ec38184612e4c565b905095945050505050565b5f81519050612edc81612385565b92915050565b5f60208284031215612ef757612ef6612352565b5b5f612f0484828501612ece565b91505092915050565b7f4e487b71000000000000000000000000000000000000000000000000000000005f52601260045260245ffd5b5f606082019050612f4d5f830186612600565b612f5a6020830185612545565b612f676040830184612600565b949350505050565b5f612f79826124b7565b9150612f84836124b7565b9250828203905081811115612f9c57612f9b612c06565b5b92915050565b7f4e487b71000000000000000000000000000000000000000000000000000000005f52603160045260245ffdfea26469706673582212208aca8ed87ded7a33c041b7960ffeaa87427289f5eeb054f5332545ffb842892064736f6c63430008150033",
  "immutableReferences": {},
  "source": "// SPDX-License-Identifier: MIT\r\npragma solidity >=0.4.22 <0.9.0;\r\n\r\nimport \"@openzeppelin/contracts/token/ERC721/extensions/ERC721Enumerable.sol\";\r\n\r\ncontract ArtMarketplace is ERC721Enumerable {\r\n    address public backendAddress;\r\n\r\n    event BackendAddressSet(address indexed previousAddress, address indexed newAddress);\r\n    event ArtListed(uint256 artId, address artistAddress, string title, uint256 price);\r\n    event ArtPurchased(uint256 artId, address buyerAddress, uint256 price);\r\n    event ArtResold(uint256 artId, uint256 newPrice);\r\n\r\n    modifier onlyBackend() {\r\n        require(msg.sender == backendAddress, \"Unauthorized\");\r\n        _;\r\n    }\r\n\r\n    constructor(string memory _name, string memory _symbol) ERC721(_name, _symbol) {}\r\n\r\n    function setBackendAddress(address _backendAddress) external {\r\n        require(backendAddress == address(0), \"Backend address already set\");\r\n        emit BackendAddressSet(address(0), _backendAddress);\r\n        backendAddress = _backendAddress;\r\n    }\r\n\r\n    function listArt(string calldata _title, uint256 _price) external {\r\n        uint256 artId = totalSupply() + 1;\r\n        _mint(msg.sender, artId);\r\n        emit ArtListed(artId, msg.sender, _title, _price);\r\n    }\r\n\r\n    function buyArt(uint256 _artId) external payable {\r\n        require(ownerOf(_artId) != address(0), \"Art not listed\");\r\n        address artistAddress = ownerOf(_artId);\r\n        uint256 price = msg.value;\r\n        _transfer(artistAddress, msg.sender, _artId);\r\n        payable(artistAddress).transfer(price);\r\n        updateBackendOnPurchase(_artId, msg.sender, price);\r\n    }\r\n\r\n    function resellArt(uint256 _artId, uint256 _newPrice) external {\r\n        require(ownerOf(_artId) == msg.sender, \"Not the owner of the art\");\r\n        require(_newPrice > 0, \"Price should be greater than zero\");\r\n        updateBackendOnResell(_artId, _newPrice);\r\n    }\r\n\r\n    function updateBackendOnPurchase(uint256 _artId, address _buyer, uint256 _price) private onlyBackend {\r\n        emit ArtPurchased(_artId, _buyer, _price);\r\n    }\r\n\r\n    function updateBackendOnResell(uint256 _artId, uint256 _newPrice) private onlyBackend {\r\n        emit ArtResold(_artId, _newPrice);\r\n    }\r\n\r\n    fallback() external payable {\r\n        // Fallback function to receive Ether\r\n    }\r\n     receive() external payable {}\r\n}\r\n",
  "sourcePath": "D:\\Mega\\Mega\\ArtGuardian\\contracts\\ArtMarketplace.sol",
  "compiler": {
    "name": "solc",
    "version": "0.8.21+commit.d9974bed.Emscripten.clang"
  },
  "schemaVersion": "3.4.16",
  "updatedAt": "2024-03-15T05:19:15.605Z",
  "networkType": "ethereum",
  "devdoc": {
    "errors": {
      "ERC721EnumerableForbiddenBatchMint()": [
        {
          "details": "Batch mint is not allowed."
        }
      ],
      "ERC721IncorrectOwner(address,uint256,address)": [
        {
          "details": "Indicates an error related to the ownership over a particular token. Used in transfers.",
          "params": {
            "owner": "Address of the current owner of a token.",
            "sender": "Address whose tokens are being transferred.",
            "tokenId": "Identifier number of a token."
          }
        }
      ],
      "ERC721InsufficientApproval(address,uint256)": [
        {
          "details": "Indicates a failure with the `operator`s approval. Used in transfers.",
          "params": {
            "operator": "Address that may be allowed to operate on tokens without being their owner.",
            "tokenId": "Identifier number of a token."
          }
        }
      ],
      "ERC721InvalidApprover(address)": [
        {
          "details": "Indicates a failure with the `approver` of a token to be approved. Used in approvals.",
          "params": {
            "approver": "Address initiating an approval operation."
          }
        }
      ],
      "ERC721InvalidOperator(address)": [
        {
          "details": "Indicates a failure with the `operator` to be approved. Used in approvals.",
          "params": {
            "operator": "Address that may be allowed to operate on tokens without being their owner."
          }
        }
      ],
      "ERC721InvalidOwner(address)": [
        {
          "details": "Indicates that an address can't be an owner. For example, `address(0)` is a forbidden owner in EIP-20. Used in balance queries.",
          "params": {
            "owner": "Address of the current owner of a token."
          }
        }
      ],
      "ERC721InvalidReceiver(address)": [
        {
          "details": "Indicates a failure with the token `receiver`. Used in transfers.",
          "params": {
            "receiver": "Address to which tokens are being transferred."
          }
        }
      ],
      "ERC721InvalidSender(address)": [
        {
          "details": "Indicates a failure with the token `sender`. Used in transfers.",
          "params": {
            "sender": "Address whose tokens are being transferred."
          }
        }
      ],
      "ERC721NonexistentToken(uint256)": [
        {
          "details": "Indicates a `tokenId` whose `owner` is the zero address.",
          "params": {
            "tokenId": "Identifier number of a token."
          }
        }
      ],
      "ERC721OutOfBoundsIndex(address,uint256)": [
        {
          "details": "An `owner`'s token query was out of bounds for `index`. NOTE: The owner being `address(0)` indicates a global out of bounds index."
        }
      ]
    },
    "events": {
      "Approval(address,address,uint256)": {
        "details": "Emitted when `owner` enables `approved` to manage the `tokenId` token."
      },
      "ApprovalForAll(address,address,bool)": {
        "details": "Emitted when `owner` enables or disables (`approved`) `operator` to manage all of its assets."
      },
      "Transfer(address,address,uint256)": {
        "details": "Emitted when `tokenId` token is transferred from `from` to `to`."
      }
    },
    "kind": "dev",
    "methods": {
      "approve(address,uint256)": {
        "details": "See {IERC721-approve}."
      },
      "balanceOf(address)": {
        "details": "See {IERC721-balanceOf}."
      },
      "getApproved(uint256)": {
        "details": "See {IERC721-getApproved}."
      },
      "isApprovedForAll(address,address)": {
        "details": "See {IERC721-isApprovedForAll}."
      },
      "name()": {
        "details": "See {IERC721Metadata-name}."
      },
      "ownerOf(uint256)": {
        "details": "See {IERC721-ownerOf}."
      },
      "safeTransferFrom(address,address,uint256)": {
        "details": "See {IERC721-safeTransferFrom}."
      },
      "safeTransferFrom(address,address,uint256,bytes)": {
        "details": "See {IERC721-safeTransferFrom}."
      },
      "setApprovalForAll(address,bool)": {
        "details": "See {IERC721-setApprovalForAll}."
      },
      "supportsInterface(bytes4)": {
        "details": "See {IERC165-supportsInterface}."
      },
      "symbol()": {
        "details": "See {IERC721Metadata-symbol}."
      },
      "tokenByIndex(uint256)": {
        "details": "See {IERC721Enumerable-tokenByIndex}."
      },
      "tokenOfOwnerByIndex(address,uint256)": {
        "details": "See {IERC721Enumerable-tokenOfOwnerByIndex}."
      },
      "tokenURI(uint256)": {
        "details": "See {IERC721Metadata-tokenURI}."
      },
      "totalSupply()": {
        "details": "See {IERC721Enumerable-totalSupply}."
      },
      "transferFrom(address,address,uint256)": {
        "details": "See {IERC721-transferFrom}."
      }
    },
    "version": 1
  },
  "userdoc": {
    "kind": "user",
    "methods": {},
    "version": 1
  }
}