{
  "contractName": "PaintingMarketplace",
  "abi": [
    {
      "inputs": [
        {
          "internalType": "uint256",
          "name": "",
          "type": "uint256"
        }
      ],
      "name": "paintings",
      "outputs": [
        {
          "internalType": "uint256",
          "name": "id",
          "type": "uint256"
        },
        {
          "internalType": "address",
          "name": "owner",
          "type": "address"
        },
        {
          "internalType": "string",
          "name": "name",
          "type": "string"
        },
        {
          "internalType": "string",
          "name": "artist",
          "type": "string"
        },
        {
          "internalType": "uint256",
          "name": "price",
          "type": "uint256"
        },
        {
          "internalType": "bool",
          "name": "isListed",
          "type": "bool"
        }
      ],
      "stateMutability": "view",
      "type": "function",
      "constant": true
    },
    {
      "inputs": [],
      "name": "totalPaintings",
      "outputs": [
        {
          "internalType": "uint256",
          "name": "",
          "type": "uint256"
        }
      ],
      "stateMutability": "view",
      "type": "function",
      "constant": true
    },
    {
      "inputs": [
        {
          "internalType": "string",
          "name": "_name",
          "type": "string"
        },
        {
          "internalType": "string",
          "name": "_artist",
          "type": "string"
        },
        {
          "internalType": "uint256",
          "name": "_price",
          "type": "uint256"
        }
      ],
      "name": "createPainting",
      "outputs": [],
      "stateMutability": "nonpayable",
      "type": "function"
    },
    {
      "inputs": [
        {
          "internalType": "uint256",
          "name": "_id",
          "type": "uint256"
        }
      ],
      "name": "buyPainting",
      "outputs": [],
      "stateMutability": "payable",
      "type": "function",
      "payable": true
    },
    {
      "inputs": [
        {
          "internalType": "uint256",
          "name": "_id",
          "type": "uint256"
        },
        {
          "internalType": "uint256",
          "name": "_price",
          "type": "uint256"
        }
      ],
      "name": "listPainting",
      "outputs": [],
      "stateMutability": "nonpayable",
      "type": "function"
    },
    {
      "inputs": [],
      "name": "getPaintings",
      "outputs": [
        {
          "components": [
            {
              "internalType": "uint256",
              "name": "id",
              "type": "uint256"
            },
            {
              "internalType": "address",
              "name": "owner",
              "type": "address"
            },
            {
              "internalType": "string",
              "name": "name",
              "type": "string"
            },
            {
              "internalType": "string",
              "name": "artist",
              "type": "string"
            },
            {
              "internalType": "uint256",
              "name": "price",
              "type": "uint256"
            },
            {
              "internalType": "bool",
              "name": "isListed",
              "type": "bool"
            }
          ],
          "internalType": "struct PaintingMarketplace.Painting[]",
          "name": "",
          "type": "tuple[]"
        }
      ],
      "stateMutability": "view",
      "type": "function",
      "constant": true
    }
  ],
  "bytecode": "0x608060405234801561001057600080fd5b5061130e806100206000396000f3fe6080604052600436106100555760003560e01c806399eb59671461005a578063b2edb37e14610085578063c7ca6daa146100a1578063d284c649146100e3578063dcd1bb221461010c578063fe9c8bfa14610135575b600080fd5b34801561006657600080fd5b5061006f610160565b60405161007c9190610ef7565b60405180910390f35b61009f600480360381019061009a9190610b61565b610423565b005b3480156100ad57600080fd5b506100c860048036038101906100c39190610b61565b61059f565b6040516100da96959493929190610fb4565b60405180910390f35b3480156100ef57600080fd5b5061010a60048036038101906101059190610b8a565b610718565b005b34801561011857600080fd5b50610133600480360381019061012e9190610ae2565b61083d565b005b34801561014157600080fd5b5061014a61096e565b6040516101579190610f99565b60405180910390f35b6060600060015467ffffffffffffffff8111156101a6577f4e487b7100000000000000000000000000000000000000000000000000000000600052604160045260246000fd5b6040519080825280602002602001820160405280156101df57816020015b6101cc610974565b8152602001906001900390816101c45790505b5090506000600190505b600154811161041b576000808281526020019081526020016000206040518060c0016040529081600082015481526020016001820160009054906101000a900473ffffffffffffffffffffffffffffffffffffffff1673ffffffffffffffffffffffffffffffffffffffff1673ffffffffffffffffffffffffffffffffffffffff16815260200160028201805461027f906111a8565b80601f01602080910402602001604051908101604052809291908181526020018280546102ab906111a8565b80156102f85780601f106102cd576101008083540402835291602001916102f8565b820191906000526020600020905b8154815290600101906020018083116102db57829003601f168201915b50505050508152602001600382018054610311906111a8565b80601f016020809104026020016040519081016040528092919081815260200182805461033d906111a8565b801561038a5780601f1061035f5761010080835404028352916020019161038a565b820191906000526020600020905b81548152906001019060200180831161036d57829003601f168201915b50505050508152602001600482015481526020016005820160009054906101000a900460ff161515151581525050826001836103c691906110ea565b815181106103fd577f4e487b7100000000000000000000000000000000000000000000000000000000600052603260045260246000fd5b60200260200101819052508080610413906111da565b9150506101e9565b508091505090565b600080600083815260200190815260200160002090508060050160009054906101000a900460ff1661048a576040517f08c379a000000000000000000000000000000000000000000000000000000000815260040161048190610f79565b60405180910390fd5b806004015434146104d0576040517f08c379a00000000000000000000000000000000000000000000000000000000081526004016104c790610f39565b60405180910390fd5b60008160050160006101000a81548160ff0219169083151502179055508060010160009054906101000a900473ffffffffffffffffffffffffffffffffffffffff1673ffffffffffffffffffffffffffffffffffffffff166108fc349081150290604051600060405180830381858888f19350505050158015610557573d6000803e3d6000fd5b50338160010160006101000a81548173ffffffffffffffffffffffffffffffffffffffff021916908373ffffffffffffffffffffffffffffffffffffffff1602179055505050565b60006020528060005260406000206000915090508060000154908060010160009054906101000a900473ffffffffffffffffffffffffffffffffffffffff16908060020180546105ee906111a8565b80601f016020809104026020016040519081016040528092919081815260200182805461061a906111a8565b80156106675780601f1061063c57610100808354040283529160200191610667565b820191906000526020600020905b81548152906001019060200180831161064a57829003601f168201915b50505050509080600301805461067c906111a8565b80601f01602080910402602001604051908101604052809291908181526020018280546106a8906111a8565b80156106f55780601f106106ca576101008083540402835291602001916106f5565b820191906000526020600020905b8154815290600101906020018083116106d857829003601f168201915b5050505050908060040154908060050160009054906101000a900460ff16905086565b600080600084815260200190815260200160002090503373ffffffffffffffffffffffffffffffffffffffff168160010160009054906101000a900473ffffffffffffffffffffffffffffffffffffffff1673ffffffffffffffffffffffffffffffffffffffff16146107c0576040517f08c379a00000000000000000000000000000000000000000000000000000000081526004016107b790610f19565b60405180910390fd5b8060050160009054906101000a900460ff1615610812576040517f08c379a000000000000000000000000000000000000000000000000000000000815260040161080990610f59565b60405180910390fd5b60018160050160006101000a81548160ff021916908315150217905550818160040181905550505050565b60016000815480929190610850906111da565b91905055506040518060c0016040528060015481526020013373ffffffffffffffffffffffffffffffffffffffff1681526020018481526020018381526020018281526020016001151581525060008060015481526020019081526020016000206000820151816000015560208201518160010160006101000a81548173ffffffffffffffffffffffffffffffffffffffff021916908373ffffffffffffffffffffffffffffffffffffffff160217905550604082015181600201908051906020019061091e9291906109c2565b50606082015181600301908051906020019061093b9291906109c2565b506080820151816004015560a08201518160050160006101000a81548160ff021916908315150217905550905050505050565b60015481565b6040518060c0016040528060008152602001600073ffffffffffffffffffffffffffffffffffffffff1681526020016060815260200160608152602001600081526020016000151581525090565b8280546109ce906111a8565b90600052602060002090601f0160209004810192826109f05760008555610a37565b82601f10610a0957805160ff1916838001178555610a37565b82800160010185558215610a37579182015b82811115610a36578251825591602001919060010190610a1b565b5b509050610a449190610a48565b5090565b5b80821115610a61576000816000905550600101610a49565b5090565b6000610a78610a7384611054565b611023565b905082815260208101848484011115610a9057600080fd5b610a9b848285611166565b509392505050565b600082601f830112610ab457600080fd5b8135610ac4848260208601610a65565b91505092915050565b600081359050610adc816112c1565b92915050565b600080600060608486031215610af757600080fd5b600084013567ffffffffffffffff811115610b1157600080fd5b610b1d86828701610aa3565b935050602084013567ffffffffffffffff811115610b3a57600080fd5b610b4686828701610aa3565b9250506040610b5786828701610acd565b9150509250925092565b600060208284031215610b7357600080fd5b6000610b8184828501610acd565b91505092915050565b60008060408385031215610b9d57600080fd5b6000610bab85828601610acd565b9250506020610bbc85828601610acd565b9150509250929050565b6000610bd28383610e49565b905092915050565b610be38161111e565b82525050565b610bf28161111e565b82525050565b6000610c0382611094565b610c0d81856110b7565b935083602082028501610c1f85611084565b8060005b85811015610c5b5784840389528151610c3c8582610bc6565b9450610c47836110aa565b925060208a01995050600181019050610c23565b50829750879550505050505092915050565b610c7681611130565b82525050565b610c8581611130565b82525050565b6000610c968261109f565b610ca081856110c8565b9350610cb0818560208601611175565b610cb9816112b0565b840191505092915050565b6000610ccf8261109f565b610cd981856110d9565b9350610ce9818560208601611175565b610cf2816112b0565b840191505092915050565b6000610d0a6026836110d9565b91507f596f7520617265206e6f7420746865206f776e6572206f66207468697320706160008301527f696e74696e6700000000000000000000000000000000000000000000000000006020830152604082019050919050565b6000610d706015836110d9565b91507f496e636f727265637420616d6f756e742073656e7400000000000000000000006000830152602082019050919050565b6000610db06023836110d9565b91507f5061696e74696e6720697320616c7265616479206c697374656420666f72207360008301527f616c6500000000000000000000000000000000000000000000000000000000006020830152604082019050919050565b6000610e16601f836110d9565b91507f5061696e74696e67206973206e6f74206c697374656420666f722073616c65006000830152602082019050919050565b600060c083016000830151610e616000860182610ed9565b506020830151610e746020860182610bda565b5060408301518482036040860152610e8c8282610c8b565b91505060608301518482036060860152610ea68282610c8b565b9150506080830151610ebb6080860182610ed9565b5060a0830151610ece60a0860182610c6d565b508091505092915050565b610ee28161115c565b82525050565b610ef18161115c565b82525050565b60006020820190508181036000830152610f118184610bf8565b905092915050565b60006020820190508181036000830152610f3281610cfd565b9050919050565b60006020820190508181036000830152610f5281610d63565b9050919050565b60006020820190508181036000830152610f7281610da3565b9050919050565b60006020820190508181036000830152610f9281610e09565b9050919050565b6000602082019050610fae6000830184610ee8565b92915050565b600060c082019050610fc96000830189610ee8565b610fd66020830188610be9565b8181036040830152610fe88187610cc4565b90508181036060830152610ffc8186610cc4565b905061100b6080830185610ee8565b61101860a0830184610c7c565b979650505050505050565b6000604051905081810181811067ffffffffffffffff8211171561104a57611049611281565b5b8060405250919050565b600067ffffffffffffffff82111561106f5761106e611281565b5b601f19601f8301169050602081019050919050565b6000819050602082019050919050565b600081519050919050565b600081519050919050565b6000602082019050919050565b600082825260208201905092915050565b600082825260208201905092915050565b600082825260208201905092915050565b60006110f58261115c565b91506111008361115c565b92508282101561111357611112611223565b5b828203905092915050565b60006111298261113c565b9050919050565b60008115159050919050565b600073ffffffffffffffffffffffffffffffffffffffff82169050919050565b6000819050919050565b82818337600083830152505050565b60005b83811015611193578082015181840152602081019050611178565b838111156111a2576000848401525b50505050565b600060028204905060018216806111c057607f821691505b602082108114156111d4576111d3611252565b5b50919050565b60006111e58261115c565b91507fffffffffffffffffffffffffffffffffffffffffffffffffffffffffffffffff82141561121857611217611223565b5b600182019050919050565b7f4e487b7100000000000000000000000000000000000000000000000000000000600052601160045260246000fd5b7f4e487b7100000000000000000000000000000000000000000000000000000000600052602260045260246000fd5b7f4e487b7100000000000000000000000000000000000000000000000000000000600052604160045260246000fd5b6000601f19601f8301169050919050565b6112ca8161115c565b81146112d557600080fd5b5056fea264697066735822122099bd52880bf35fcbc7e1e4be63c5cbcfb4941c4d4746ec21bb36be79c3da010f64736f6c63430008000033",
  "immutableReferences": {},
  "source": "// SPDX-License-Identifier: MIT\r\n\r\npragma solidity >=0.4.22 <0.9.0;\r\n\r\ncontract PaintingMarketplace {\r\n    \r\n    struct Painting {\r\n        uint256 id;\r\n        address owner;\r\n        string name;\r\n        string artist;\r\n        uint256 price;\r\n        bool isListed;\r\n    }\r\n    \r\n    mapping(uint256 => Painting) public paintings;\r\n    uint256 public totalPaintings;\r\n    \r\n    function createPainting(string memory _name, string memory _artist, uint256 _price) public {\r\n        totalPaintings++;\r\n        paintings[totalPaintings] = Painting(totalPaintings, msg.sender, _name, _artist, _price, true);\r\n    }\r\n    \r\n    function buyPainting(uint256 _id) public payable {\r\n        Painting storage painting = paintings[_id];\r\n        require(painting.isListed, \"Painting is not listed for sale\");\r\n        require(msg.value == painting.price, \"Incorrect amount sent\");\r\n        painting.isListed = false;\r\n        payable(painting.owner).transfer(msg.value);\r\n        painting.owner = msg.sender;\r\n    }\r\n    \r\n    function listPainting(uint256 _id, uint256 _price) public {\r\n        Painting storage painting = paintings[_id];\r\n        require(painting.owner == msg.sender, \"You are not the owner of this painting\");\r\n        require(!painting.isListed, \"Painting is already listed for sale\");\r\n        painting.isListed = true;\r\n        painting.price = _price;\r\n    }\r\n    \r\n    function getPaintings() public view returns (Painting[] memory) {\r\n        Painting[] memory _paintings = new Painting[](totalPaintings);\r\n        for (uint256 i = 1; i <= totalPaintings; i++) {\r\n            _paintings[i - 1] = paintings[i];\r\n        }\r\n        return _paintings;\r\n    }\r\n}",
  "sourcePath": "D:\\ArtGuardian\\contracts\\PaintingMarketplace.sol",
  "compiler": {
    "name": "solc",
    "version": "0.8.0+commit.c7dfd78e.Emscripten.clang"
  },
  "schemaVersion": "3.4.16",
  "updatedAt": "2023-10-16T10:34:04.796Z",
  "networkType": "ethereum",
  "devdoc": {
    "kind": "dev",
    "methods": {},
    "version": 1
  },
  "userdoc": {
    "kind": "user",
    "methods": {},
    "version": 1
  }
}